:100000000C94B7000C94DF000C94DF000C94DF001C
:100010000C94DF000C94DF000C94DF000C94DF00E4
:100020000C94DF000C94DF000C94DF000C947A0F2A
:100030000C94DF000C94DF000C94DF000C94DF00C4
:100040000C94B90D0C94DF000C94290E0C94030E43
:100050000C94DF000C94DF000C94DF000C94DF00A4
:100060000C945B0E0C94DF00084AD73B3BCE016E2C
:1000700084BCBFFDC12F3D6C74319ABD56833DDAFF
:100080003D00C77F11BED9E4BB4C3E916BAAAABE0E
:10009000000000803F08000000BE922449123EABE1
:1000A000AAAA2ABECDCCCC4C3E00000080BEABAA92
:1000B000AAAA3E00000000BF000000803F00000030
:1000C0000000084178D3BB4387D1133D190E3CC3D0
:1000D000BD4282AD2B3E68EC8276BED98FE1A93E4F
:1000E0004C80EFFFBE01C4FF7F3F00000000000610
:1000F00064EC1B3C04BC163E3BE5B93CC93C37C232
:100100009E5A3D660498083EEA69AAAA3E0000008D
:10011000803F00000000240027002A0000000000AB
:10012000250028002B0000000000230026002900E5
:10013000040404040404040402020202020203038D
:100140000303030301020408102040800102040895
:100150001020010204081020000000080002010025
:100160000003040700000000000000001610112426
:100170001FBECFEFD8E0DEBFCDBF13E0A0E0B1E0FF
:10018000E8EBF6E302C005900D92A831B107D9F76C
:1001900025E0A8E1B3E001C01D92A934B207E1F760
:1001A00010E0C7EBD0E004C02197FE010E94F217D7
:1001B000C63BD107C9F70E94DC100C945A1B0C9463
:1001C000000096E0899FD0011124AC52BB4F90965D
:1001D0007C936E935F9791E091969C939197E091B9
:1001E0004105F091420590914005992339F03097EF
:1001F00051F0811108C08091F0040994309719F0F2
:100200005C968C91FACF08950895CF92DF92EF9289
:10021000FF920F931F936B017C0180911C0481114D
:1002200008C0A8EEB3E0A7019B010E94AF176B01C5
:100230007C01C701B6010E94411920E030E040E096
:100240005FE30E94771A02E010E020E030E00093C4
:1002500018041093190420931A0430931B0420915E
:100260000201222309F4CEC028ECC216D104E10415
:10027000F10408F053C02C982B982A9820911C0464
:10028000211110921C042FB72093170478942FE9A2
:1002900030E0309389002093880020E030E040E295
:1002A00051E40E9499186B017C010E94121970930D
:1002B000160460931504609115047091160490E083
:1002C00080E00E9441199B01AC01C701B6010E9468
:1002D000F8176B017C0120E030E0A9010E9494181E
:1002E000811194C01092010180911504909116041F
:1002F000B0E0A0E08093100490931104A093120446
:10030000B0931304809181008160809381001F91DC
:100310000F91FF90EF90DF90CF90089524EFC216D9
:1003200021E0D206E104F104B8F42C9A2B982A9823
:1003300054E0C52ED12CE12CF12CC0921804D0929F
:100340001904E0921A04F0921B0420E030E040E02F
:100350005FE30E94771A92CF20E2C21623E0D20612
:10036000E104F104A8F42C982B9A2A9848E0C42EB2
:10037000D12CE12CF12CC0921804D0921904E092F7
:100380001A04F0921B0420E030E040E85EE3E1CF85
:1003900020E1C21627E2D206E104F104A8F42C9A67
:1003A0002B9A2A9830E1C32ED12CE12CF12CC0924B
:1003B0001804D0921904E0921A04F0921B0420E071
:1003C00030E040E05EE3C5CF20E4C21622E4D2066E
:1003D0002FE0E206F10408F051CF2C9A2B9A2A9ACA
:1003E00020E2C22ED12CE12CF12CC0921804D09224
:1003F0001904E0921A04F0921B0420E030E040E877
:100400005DE3A7CF21E02093020138CFA701960139
:1004100060E070E080E89FE30E9499180E94121942
:100420006093140481E0809301015ECF833081F0FA
:1004300028F4813099F08230A9F008958730A9F02E
:100440008830C9F08430B1F4809180008F7D03C082
:10045000809180008F7780938000089584B58F7796
:1004600084BD089584B58F7DFBCF8091B0008F77D8
:100470008093B00008958091B0008F7DF9CFCF9325
:10048000DF93282F30E0F901E85AFE4F8491F901FB
:10049000EC5BFE4FD491F901E05DFE4FC491CC239B
:1004A000A1F081110E941602EC2FF0E0EE0FFF1F69
:1004B000EA5DFE4FA591B491EC91ED2381E090E0CF
:1004C00009F480E0DF91CF91089580E090E0FACFC9
:1004D0001F93CF93DF93282F30E0F901E85AFE4FA6
:1004E0008491F901EC5BFE4FD491F901E05DFE4F80
:1004F000C491CC23A9F0162F81110E941602EC2F73
:10050000F0E0EE0FFF1FE45EFE4FA591B4918FB7B0
:10051000F894EC91111108C0D095DE23DC938FBFC5
:10052000DF91CF911F910895DE2BF8CFCF93DF930A
:1005300090E0FC01EC5BFE4F2491805D9E4FFC013E
:1005400084918823C9F090E0880F991FFC01EE5E2A
:10055000FE4FA591B491FC01E45EFE4FC591D4918C
:1005600061110DC09FB7F8948C91209582238C93D4
:100570008881282328839FBFDF91CF91089562301F
:1005800051F49FB7F8943C91822F809583238C93EC
:10059000E8812E2BEFCF8FB7F894EC912E2B2C9374
:1005A0008FBFEACF8E50806480937C0080917A0068
:1005B000806480937A0080917A0086FDFCCF8091E0
:1005C00078009091790008953FB7F89480919C034A
:1005D00090919D03A0919E03B0919F0326B5A89B87
:1005E00005C02F3F19F00196A11DB11D3FBFBA2FC5
:1005F000A92F982F8827BC01CD01620F711D811D85
:10060000911D42E0660F771F881F991F4A95D1F709
:1006100008958F929F92AF92BF92CF92DF92EF9206
:10062000FF924B015C010E94E4026B017C010E947D
:10063000E4026C197D098E099F09683E73408105AB
:100640009105A8F321E0821A9108A108B10888EE6B
:10065000C80E83E0D81EE11CF11C81149104A10492
:10066000B10429F7FF90EF90DF90CF90BF90AF904B
:100670009F908F9008952FB7F89460919803709190
:10068000990380919A0390919B032FBF08950F9334
:100690001F93CF93DF93C82FD62F86E0C89FF0011A
:1006A0001124EC52FB4F11A2878D90A1813091054E
:1006B000F1F058F082309105F1F1039709F440C050
:1006C000DF91CF911F910F9108956623C9F361E0E7
:1006D00070E08C2F0E94E1000E943B0360932C0588
:1006E00070932D0580932E0590932F05E9CF0E94DE
:1006F0003B0300912C0510912D0520912E05309182
:100700002F05AB01BC01401B510B620B730B809199
:100710003E0590913F05B0E0A0E084179507A6073D
:10072000B70748F462E070E08C2FDF91CF911F9102
:100730000F910C94E10063E070E0D111C1CFF4CFD0
:1007400070E060E0F1CF08950895AF92BF92CF922C
:10075000DF92EF92FF920F931F93CF93DF936C0181
:100760007B018B01040F151FEB015E01AE18BF0862
:10077000C017D10759F06991D601ED91FC91019014
:10078000F081E02DC6010995892B79F7C501DF912C
:10079000CF911F910F91FF90EF90DF90CF90BF907E
:1007A000AF900895FC01538D448D252F30E0842FA8
:1007B00090E0821B930B541710F0CF960895019789
:1007C0000895FC01918D828D981761F0A28DAE0F76
:1007D000BF2FB11D5D968C91928D9F5F9F73928FFD
:1007E00090E008958FEF9FEF0895FC01918D828D29
:1007F000981731F0828DE80FF11D858D90E00895F6
:100800008FEF9FEF0895FC01918D228D892F90E04D
:10081000805C9F4F821B91098F73992708958DE10A
:1008200094E00E94030421E0892B09F420E0822F48
:10083000089580E090E0892B29F00E940F04811137
:100840000C9400000895FC01A48DA80FB92FB11DD0
:10085000A35ABF4F2C91848D90E001968F739927F6
:10086000848FA689B7892C93A089B1898C918370D4
:1008700080648C93938D848D981306C00288F389CD
:10088000E02D80818F7D80830895EF92FF920F93FA
:100890001F93CF93DF93EC0181E0888F9B8D8C8D2C
:1008A00098131AC0E889F989808185FF15C09FB720
:1008B000F894EE89FF896083E889F98980818370E3
:1008C000806480839FBF81E090E0DF91CF911F9192
:1008D0000F91FF90EF900895F62E0B8D10E00F5FB3
:1008E0001F4F0F731127E02E8C8D8E110CC00FB689
:1008F00007FCFACFE889F989808185FFF5CFCE0121
:100900000E942304F1CFEB8DEC0FFD2FF11DE35A74
:10091000FF4FF0829FB7F8940B8FEA89FB898081A3
:100920008062CFCFCF93DF93EC01888D8823B9F01D
:10093000AA89BB89E889F9898C9185FD03C08081EA
:1009400086FD0DC00FB607FCF7CF8C9185FFF2CF67
:10095000808185FFEDCFCE010E942304E9CFDF9196
:10096000CF910895862F0C943F02862F642F0C940C
:100970006802862F642F0C949602089520915503E7
:10098000260F3327331F21323105ECF42091E60383
:10099000FC0190E080E0243069F082E00895A091AD
:1009A00055032191AC014B5C5C4FA40FB52FB11DD9
:1009B0002C930196861798F380915503680F6093E6
:1009C000550380E0089581E008951092E60381E0E8
:1009D0008093E5031092C00361E082E10E94680207
:1009E00061E083E10E946802E9EBF0E080818E7FA4
:1009F000808380818D7F808388E48093B80085E444
:100A00008093BC000895CF93DF9391E090933403DB
:100A10008823B9F0C091B800D091BA008091BC0091
:100A20008A7B8093BC0060E082E10E94680260E003
:100A300083E10E9468020E94E504D093BA00C0934B
:100A4000B800DF91CF9108958F929F92AF92BF929D
:100A5000CF92DF92EF92FF920F931F93CF93DF938A
:100A6000D0910F04D13208F0D7C0182FC0910E04D6
:100A70000E94E4026B017C018091E60381116BC04E
:100A800082E08093E6031093E5038FEF8093E40305
:100A90001092E303D093E203AEEEB3E0E2ECF3E0B6
:100AA00080E0D81391C01092C1038091C103CC0F94
:100AB000C82BC093C1038091C003813009F088C066
:100AC0001092C0030E94E4026B017C018091C1037B
:100AD0008093BB008091E8039091E903A091EA0321
:100AE000B091EB03892B8A2B8B2BA1F00E94E4029F
:100AF0000091E8031091E9032091EA033091EB03A0
:100B00006C197D098E099F090617170728073907F1
:100B100008F442C08091BC0083FDD8CF85EC80935F
:100B2000BC000E94E4026B017C018091E6038230EC
:100B300009F450C08091E4038F3F09F46FC08091A5
:100B4000E403803209F46CC08091E403803309F43B
:100B500069C084E026C08091E8039091E903A091E8
:100B6000EA03B091EB03892B8A2B8B2B09F484CFFA
:100B70000E94E4028090E8039090E903A090EA03C9
:100B8000B090EB036C197D098E099F0986169706B4
:100B9000A806B90608F070CF8091E7030E9403050C
:100BA00085E01092ED0310920F041092EC03DF9198
:100BB000CF911F910F91FF90EF90DF90CF90BF905A
:100BC000AF909F908F9008959D9191938F5F69CF83
:100BD00085EEA5CF8091E8039091E903A091EA0307
:100BE000B091EB03892B8A2B8B2B09F49ECF0E94AB
:100BF000E4020091E8031091E9032091EA033091A7
:100C0000EB036C197D098E099F0906171707280742
:100C1000390708F08ACFC0CF81E0C3CF80E0C1CFD1
:100C200082E0BFCF83E0BDCFEF92FF920F931F937F
:100C3000CF93DF93EC018B017C0183E7E80EF11C7D
:100C4000D7018D919C91FE01E159FF4F208131E048
:100C50003093EC0320930E041092ED0310920F04D6
:100C6000DC01ED91FC910190F081E02D0995FE01F0
:100C7000E059FF4F8081823058F0F70180819181E7
:100C8000DC01ED91FC910190F081E02D612F09953F
:100C900081E00E942405CF58DF4F08831983DF913C
:100CA000CF911F910F91FF90EF90089521E030E0D8
:100CB00002C0220F331F6A95E2F7FC01EF58FF4F85
:100CC00060817181442341F0262B372B31832083AF
:100CD000608171810C94140620953095262337236A
:100CE000F5CFCF92DF92EF92FF920F931F93CF93A6
:100CF000DF93D82FC62F613208F098C00E94E4021B
:100D00006B017C018091E60381116BC081E08093CF
:100D1000E6038093E5039FEF9093E4031092E303CF
:100D20009C0F9093E2038093C1038091C103DD0F78
:100D3000D82BD093C1038091C003813009F078C0D3
:100D40001092C0030E94E4026B017C018091C103F8
:100D50008093BB008091E8039091E903A091EA039E
:100D6000B091EB03892B8A2B8B2BA1F00E94E4021C
:100D70000091E8031091E9032091EA033091EB031D
:100D80006C197D098E099F0906171707280739076F
:100D900008F448C08091BC0083FDD8CF85EC8093D7
:100DA000BC000E94E4026B017C018091E60381306B
:100DB00009F440C08091E3038C1710F4C091E30361
:100DC000E2ECF3E0A0EAB3E080E08C1355C08C2F96
:100DD000DF91CF911F910F91FF90EF90DF90CF9017
:100DE00008958091E8039091E903A091EA03B091FE
:100DF000EB03892B8A2B8B2B09F484CF0E94E4020E
:100E00000091E8031091E9032091EA033091EB038C
:100E10006C197D098E099F090617170728073907DE
:100E200008F070CF8091E7030E940305C0E0CFCFA8
:100E300085EEB5CF8091E8039091E903A091EA0394
:100E4000B091EB03892B8A2B8B2B09F4AECF0E9438
:100E5000E4020091E8031091E9032091EA03309144
:100E6000EB036C197D098E099F09061717072807E0
:100E7000390708F09ACFD6CF91919D938F5FA5CF78
:100E80000895E0917D0380917C03E81730F4F0E051
:100E9000E056FC4F808190E008958FEF9FEF08951A
:100EA00090917D0380917C032FEF3FEF981748F4DA
:100EB000E92FF0E0E056FC4F208130E09F5F9093F7
:100EC0007D03C901089580917C0390917D03891B66
:100ED000990B0895CF92DF92EF92FF920F931F9399
:100EE000CF93DF937C01CB018A012091EC03222375
:100EF00089F0EB016B01C40ED51ECC15DD0569F040
:100F00006991D701ED91FC910190F081E02DC7012D
:100F10000995F3CF642F0E94BE04C801DF91CF91E1
:100F20001F910F91FF90EF90DF90CF900895CF9396
:100F3000DF931F92CDB7DEB769832091EC032223A4
:100F4000F9F020910F04203258F021E030E0FC014C
:100F50003383228390E080E00F90DF91CF9108955A
:100F60008091ED03E82FF0E0E251FC4F99819083EE
:100F70008F5F8093ED0380930F0481E090E0ECCFCE
:100F800061E0CE0101960E94BE04F7CFFC012481EE
:100F900031E03093EC0320930E041092ED03109295
:100FA0000F048485682B88EC94E00E94970781E009
:100FB0000C94240590E080E00895289A089584E038
:100FC0000E943F02892B61F481E08093860382E0D6
:100FD0000E943F02892B39F481E0809387030895B2
:100FE00010928603F4CF1092870308958F929F92F8
:100FF000AF92BF92CF92DF92EF92FF9280918C03DB
:10100000811194C0C0903003D0903103E09032033E
:10101000F090330380902C0390902D03A0902E032A
:10102000B0902F03A5019401C701B6010E941A1ABE
:1010300018164CF4C0922803D0922903E0922A0398
:10104000F0922B0310C0A5019401C701B6010E94C4
:10105000941887FFEFCF8092280390922903A092E3
:101060002A03B0922B03C0902803D0902903E0906C
:101070002A03F0902B0320E030E044E152E4C70162
:10108000B6010E941A1A87FD5AC081E08093270397
:1010900020E030E044E152E4C701B6010E94F817B5
:1010A00020E030E048E452E40E94771A20E030E08B
:1010B00040E05EE30E94771A20E030E048E452E42A
:1010C0000E94F9170E940B19709392036093910389
:1010D00080912703882351F120E030E044E152E47D
:1010E000C701B6010E94941887FF20C020E030E0BD
:1010F00044E052E4C701B6010E94F81720E030E056
:101100004CE852E40E94771A20E030E040E451E4D9
:101110000E94991820E030E040EF51E40E94F91756
:101120000E940B197093920360939103FF90EF90CC
:10113000DF90CF90BF90AF909F908F90089520E068
:1011400030E044E052E4C701B6010E94941887FFE2
:10115000BFCF109292031092910310922703B8CF41
:101160008091180490911904A0911A04B0911B0465
:10117000892B8A2B8B2BA1F70895CF92DF92EF92C8
:10118000FF920F931F93CF93DF93EC0181E090E0E8
:101190007C0102C0EE0CFF1C6A95E2F76E0180E74D
:1011A000C80ED11CD6016C91613208F060E2FE01DC
:1011B000E159FF4F80810E94710610927D03809358
:1011C0007C03CD58DF4F88819981DC01ED91FC9142
:1011D0000284F385E02D09958C01F601808182302F
:1011E00060F088819981DC01ED91FC910284F385A6
:1011F000E02D099520E0022B182B0E211F2181E004
:1012000090E00E151F0511F090E080E0DF91CF9186
:101210001F910F91FF90EF90DF90CF9008956F9204
:101220007F928F929F92AF92BF92CF92DF92EF9276
:10123000FF920F931F93CF93DF9381E0809340053C
:101240000E943B0300913005109131052091320539
:1012500030913305AB01BC01401B510B620B730B8A
:1012600080913C0590913D05B0E0A0E08417950782
:10127000A607B70708F0FAC0712C812C912C5401F5
:10128000839480913B05781608F050C0E72CF12C30
:10129000E0913805F0913905EE0DFF1D40E06081C9
:1012A00084ED94E00E94560695018401072C04C049
:1012B000000F111F221F331F0A94D2F768010095F7
:1012C0001095612C80913A05681608F5C62DD0E07E
:1012D000E0913605F0913705EC0FFD1F608184ED3C
:1012E00094E00E94BD082496CC0FDD1FCC52DB4F4A
:1012F000892B41F4888199818C299D299983888340
:101300006394E0CF8881998180239123F7CF8091E6
:10131000380590913905E80EF91E41E0F70160812A
:1013200084ED94E00E9456067394ABCF24EDC22E58
:1013300024E0D22EE6018FEF9FEF2F8D38A1232BD3
:1013400021F41C8E9E8F8D8F19A22696F5E0C03158
:10135000DF0799F710E096E0B92E80913A0518174B
:1013600008F052C000E0E12EF12CEE0CFF1CC7018A
:1013700084529B4F7C0120913B05021708F042C02C
:10138000F70160817181002E02C0769567950A94FD
:10139000E2F7129F90011124200F311DE4EDF4E0DB
:1013A00080E0458D568D2417350709F463C08F5FA3
:1013B00036968A30B1F760FF23C0E4EDF4E090E0A8
:1013C00080E0448D411117C0E0913405F09135055E
:1013D000E20FF31F4081B89EF001B99EF00D112479
:1013E000EC52FB4F448F368F258F10A2178E61E091
:1013F0000E94470305C0019636968A30910509F789
:101400000F5FB9CF1F5FA9CF10E0F60181A1811155
:10141000182FF6E0CF0ED11CCC15DD05B1F70E94D8
:101420003B036093300570933105809332059093B0
:1014300033051123D9F08091F5048823B9F0809108
:10144000F3049091F404019789F48091F004DF9102
:10145000CF911F910F91FF90EF90DF90CF90BF90B1
:10146000AF909F908F907F906F900895109240055D
:1014700080E0EDCF6170BCCF0F931F93CF938C01B1
:10148000C62F0E94C6076C2F6460C8010E94C60761
:101490006C2F6B7FC8010E94C60783EC90E0019718
:1014A000F1F7CF911F910F910895CF93C82F682F17
:1014B000607F8BEB94E00E943C0A80E1C89FB00102
:1014C00011248BEB94E0CF910C943C0ACF93DF93E3
:1014D000CDB7DEB728970FB6F894DEBF0FBECDBFED
:1014E00098E0EBE1F1E0DE01119601900D929A9502
:1014F000E1F79091C304961708F46FEF70E0660F60
:10150000771F21E030E02C0F3D1F620F731FFB019E
:101510009081890F806828960FB6F894DEBF0FBEC1
:10152000CDBFDF91CF910C94550A81E00E94550AFE
:101530008BE39FE10197F1F78091C404882321F0A8
:1015400060E080E00C94660A089582E00E94550AEB
:101550008BE39FE10197F1F70895EBEBF4E08681CF
:10156000982F9160968389600C94550AEBEBF4E018
:1015700086818E7F868388600C94550A0F931F9313
:10158000CF938C01C62F607F61600E943C0A80E18E
:10159000C89FB00111246160C8010E943C0A81E02B
:1015A00090E0CF911F910F910895CF92DF92EF922B
:1015B000FF920F931F93CF93DF938C012BE930E0C1
:1015C000DC010E94EB1724E630E040E050E00E948E
:1015D000901769017A0184E6C80ED11CE11CF11C48
:1015E000E60161E083E00E9496022097B9F460E092
:1015F00083E00E946802012B09F057C061E083E09C
:101600000E94960260E083E0DF91CF911F910F91DD
:10161000FF90EF90DF90CF900C946802CF3FD10500
:1016200011F461E0E5CFEBE5F1E0E491E33019F18D
:1016300040F4E130B1F0E230C9F0C038D1058CF7A8
:10164000D6CFE73011F1E83041F1E430B1F78091C5
:101650008000806280938000D0928B00C0928A00CC
:10166000CACF84B5806884BDC7BCC5CF84B580624D
:1016700084BDC8BCC0CF809180008068809380000A
:10168000D0928900C0928800B6CF8091B000806867
:101690008093B000C092B300AECF8091B000806262
:1016A0008093B000C092B400A6CFDF91CF911F917C
:1016B0000F91FF90EF90DF90CF90089585ED80938C
:1016C000BC008091E8039091E903A091EA03B091F6
:1016D000EB030796A11DB11D23E0B695A79597953D
:1016E00087952A95D1F72091BC0024FD03C0109264
:1016F000E60308954091E8035091E9036091EA03FD
:101700007091EB03452B462B472B69F30097A105FE
:10171000B10541F025E32A95F1F700000197A109F1
:10172000B109E1CF8091E7030C940305FB0101901F
:101730000020E9F73197AF01461B570BDC01ED9113
:10174000FC910280F381E02D0994BC018BEB94E0C5
:101750000C94960B0E94950A60E085E00E94660A50
:101760008DE591E00C94A50B4F925F926F927F9262
:10177000AF92BF92CF92DF92EF92FF920F931F939F
:10178000CF93DF93CDB7DEB7A1970FB6F894DEBF46
:101790000FBECDBF5C016A017B01F7FE47C0DC01D3
:1017A000ED91FC910190F081E02D6DE209958C01A5
:1017B00022273327A9012C193D094E095F0919A2D7
:1017C000FE01B1967F019AE0492E512C612C712CBB
:1017D000CA01B901A30192010E94BA17605DD70145
:1017E0006E937D01211531054105510589F790E082
:1017F00080E0109721F0BD01C5010E94960B800F7B
:10180000911FA1960FB6F894DEBF0FBECDBFDF913A
:10181000CF911F910F91FF90EF90DF90CF90BF90ED
:10182000AF907F906F905F904F900895AB019601BD
:1018300019A28E010F5D1F4F8AE0C82ED12CE12C1A
:10184000F12CCA01B901A70196010E94BA17605D87
:10185000F80162938F01211531054105510589F782
:1018600090E080E0309769F2BF01C5010E94960BBD
:10187000C8CFAB01770F660B770B0C94B40BCF93EB
:10188000DF93BC018DE194E00E94960BEC0164E6CD
:1018900071E08DE194E00E94960B8C0F9D1FDF910B
:1018A000CF9108958F929F92AF92BF92CF92DF9285
:1018B000EF92FF92CF93DF9385E10E94D202BC01A9
:1018C000990F880B990B0E9443199B01AC0160E0B2
:1018D00070EC8FE794E40E94991820E030E040E833
:1018E0005FE30E94F81720E030E44CE156E40E94E8
:1018F000771A0E942F1A6B017C012CE63FEC48E519
:1019000054E30E94771AA70196010E94771AA70153
:1019100096010E94771A4B015C0126ED34E649E7F7
:1019200059E3C701B6010E94771A2BEC38E444E86A
:101930005AE30E94F9179B01AC01C501B4010E9452
:10194000F9179B01AC0160E070E080E89FE30E9422
:10195000991823E333E948E853E40E94F8176093A9
:1019600030037093310380933203909333031092CA
:101970002303109224031092250310922603CAE039
:10198000D0E080E10E94D202BC01990F880B990B34
:101990000E94431920E539EA4BE950E40E94771A86
:1019A00029E23CE54FE054E40E94F8172DE23AEBBF
:1019B00048EE5EE30E94771A2091230330912403BE
:1019C00040912503509126030E94F9176093230349
:1019D000709324038093250390932603219789F61F
:1019E00020E030E040E251E40E9499189B01AC01F4
:1019F00060E070E080EA91E40E94F81760932C03A5
:101A000070932D0380932E0390932F0320E030E0FA
:101A100048E252E40E941A1A181614F410920001B7
:101A2000DF91CF91FF90EF90DF90CF90BF90AF907C
:101A30009F908F9008950E94B60A8091000188239C
:101A400079F088E08093C70460E08BEB94E00E941B
:101A5000C6070E94DF070E94520C1092900308955F
:101A60001092C704F1CFCF92DF92EF92FF920F93C3
:101A70001F930E94520C0E943B0300911F03109180
:101A8000200320912103309122036B017C01C01AB5
:101A9000D10AE20AF30A97018601083B1B4021059F
:101AA000310508F45FC060931F0370932003809397
:101AB00021039093220380911D0390911E03892B93
:101AC00079F581E090E090931E0380931D0361E01F
:101AD00080E00E94660A87E691E00E94A50B609173
:101AE0002C0370912D0380912E0390912F030E945F
:101AF0000B198BEB94E00E94390C84E892E00E9471
:101B0000A50B6FED8BEB94E00E94BE0A82E791E09B
:101B10001F910F91FF90EF90DF90CF900C94A50B49
:101B200010921E0310921D0361E080E00E94660A7D
:101B300084E791E00E94A50B60913003709131031E
:101B400080913203909133030E940B198BEB94E048
:101B50000E94390C6FED8BEB94E00E94BE0A8FE778
:101B600091E0D6CF1F910F91FF90EF90DF90CF9033
:101B700008951F920F920FB60F9211242F933F9347
:101B80008F939F93AF93BF93809198039091990304
:101B9000A0919A03B0919B033091970323E0230F08
:101BA0002D3758F50196A11DB11D20939703809301
:101BB000980390939903A0939A03B0939B03809109
:101BC0009C0390919D03A0919E03B0919F03019669
:101BD000A11DB11D80939C0390939D03A0939E0330
:101BE000B0939F03BF91AF919F918F913F912F91A0
:101BF0000F900FBE0F901F90189526E8230F0296A6
:101C0000A11DB11DD2CF1F920F920FB60F921124BA
:101C10002F933F934F935F936F937F938F939F93F4
:101C2000AF93BF93EF93FF938DE194E00E94230461
:101C3000FF91EF91BF91AF919F918F917F916F91A4
:101C40005F914F913F912F910F900FBE0F901F907A
:101C500018951F920F920FB60F9211242F938F9306
:101C60009F93EF93FF93E0912D04F0912E048081D8
:101C7000E0913304F091340482FD1BC09081809187
:101C800036048F5F8F7320913704821741F0E09103
:101C90003604F0E0E35EFB4F958F80933604FF91AE
:101CA000EF919F918F912F910F900FBE0F901F90EA
:101CB00018958081F4CF1F920F920FB60F921124C6
:101CC0002F933F934F935F936F937F938F939F9344
:101CD000AF93BF93EF93FF938091B900887F8036D5
:101CE00009F44AC0F0F5883209F4A7C018F580312C
:101CF00009F49BC0B8F4882309F4F9C0883009F4CA
:101D000094C0FF91EF91BF91AF919F918F917F917F
:101D10006F915F914F913F912F910F900FBE0F9058
:101D20001F901895883109F488C0803251F780934C
:101D3000E40314C0803409F49DC040F48033B9F347
:101D40008833F9F68093E40385ECB0C0803509F45C
:101D500085C0883509F496C0883499F60E945E0BD8
:101D6000D0CF883909F48CC038F5883729F050F481
:101D7000883611F0803729F683E08093E6031092CD
:101D8000770357C0883809F47BC0803919F0803850
:101D900009F0B7CF80917703803208F071C0E091ED
:101DA000770381E08E0F809377038091BB00F0E092
:101DB000E95AFC4F80833DC0803B39F0E0F4803A23
:101DC00009F479C0883A09F09CCF84E08093E60357
:101DD0001092560310925503E0917A03F0917B0321
:101DE00009958091550381110FC081E080935503BF
:101DF0001092350309C0803C09F4A6CF883C09F451
:101E0000A3CF883B09F07DCFE091560381E08E0F90
:101E100080935603F0E0EB5CFC4F80818093BB0025
:101E2000909156038091550329C08091C1038093FE
:101E3000BB0085EC8093BC0064CF9091E30380915C
:101E4000E203981758F5E091E30381E08E0F809349
:101E5000E303F0E0EE53FC4F8081E9CFE091E30330
:101E600081E08E0F8093E3038091BB00F0E0EE539E
:101E7000FC4F80839091E3038091E2039817C8F2AE
:101E800085E8D8CFE091E30381E08E0F8093E303F0
:101E90008091BB00F0E0EE53FC4F80838091E5031E
:101EA00081115CCF81E08093C00384EA8093BC0001
:101EB0001092E60326CF85EC8093BC001092E603D7
:101EC00080917703803230F4E0917703F0E0E95AB3
:101ED000FC4F10826091770370E0E0917803F091FD
:101EE000790387E593E00995109277030ACF109262
:101EF000E40334CF1F920F920FB60F9211242F9349
:101F00003F934F935F936F937F938F939F93AF9381
:101F1000BF9320911B0330911C0380911504909175
:101F200016042817390708F457C085B192E08927AD
:101F300085B990911A0380911404981365C080911B
:101F40000101882309F460C0809115049091160462
:101F50000196909316048093150410921A038091B1
:101F60001803909119030196909319038093180315
:101F700010921C0310921B03809118039091190377
:101F8000409118045091190460911A0470911B0437
:101F9000B0E0A0E084179507A607B707E8F08091A6
:101FA0008100887F809381001092850010928400C8
:101FB0002998809117048FBF10921C0310921B0365
:101FC000109218041092190410921A0410921B0413
:101FD000109219031092180380911B0390911C0317
:101FE000019690931C0380931B03BF91AF919F9127
:101FF0008F917F916F915F914F913F912F910F90B2
:102000000FBE0F901F9018958091100490911104AD
:10201000A0911204B09113049093160480931504B8
:1020200080911A038F5F80931A0399CF1092200436
:1020300010921F0488EE93E0A0E0B0E080932104AA
:1020400090932204A0932304B093240427E231E068
:1020500030931E0420931D0425EC30E030932A04B5
:102060002093290424EC30E030932C0420932B049B
:1020700020EC30E030932E0420932D0421EC30E04E
:102080003093300420932F0422EC30E0309332045C
:102090002093310426EC30E0309334042093330451
:1020A00010923604109237041092380410923904BA
:1020B0001092CB041092CA048093CC049093CD0468
:1020C000A093CE04B093CF0489E391E09093C90428
:1020D0008093C8041092D6041092DA041092D904A6
:1020E0001092DB04E0EFF4E0108214821382158278
:1020F000369685E0EC32F807B9F787E091E09093E7
:1021000037058093360583E091E0909339058093FD
:10211000380584E080933A0580933B058BE091E09D
:1021200090933505809334058AE090E090933D05C7
:1021300080933C0584EF91E090933F0580933E05AA
:10214000109242051092410510923005109231050F
:1021500010923205109233051092400587E591E008
:102160009093D5048093D40486E28093430581E064
:102170008093440588EC94E090934805809347054C
:102180001092BE041092BD048BE491E09093BC04C5
:102190008093BB041092C40487E28093BF0480E163
:1021A0008093C50482E08093C6041092C7040E9405
:1021B0000F098093BA040895CF93DF9300D000D025
:1021C0001F92CDB7DEB7789484B5826084BD84B5A4
:1021D000816084BD85B5826085BD85B5816085BD22
:1021E00080916E00816080936E00109281008091DA
:1021F0008100826080938100809181008160809362
:102200008100809180008160809380008091B10086
:1022100084608093B1008091B00081608093B000B1
:1022200080917A00846080937A0080917A00826045
:1022300080937A0080917A00816080937A00809107
:102240007A00806880937A001092C10062E084E096
:102250000E94960262E082E00E94960261E083E0C2
:102260000E94960260E087E00E94960262E080E1B0
:102270000E9496028FE99FE00197F1F700C00000ED
:10228000219A299894B184B121E030E001C0220F55
:102290009A95EAF7822B84B9259A2D9A249A239A43
:1022A000229A8091800083608093800080918100D9
:1022B00088618093810080916F00826080936F00BD
:1022C00010927D0310927C031092ED0310920F0484
:1022D0000E94E50483EA93E090937B0380937A0362
:1022E00084EA93E090937903809378030E94E50455
:1022F0001092C0048091C604823018F098E0909348
:10230000C0048093C30462E370E080E090E00E9428
:1023100009036091C7048BEB94E00E94C60768EE46
:1023200073E080E090E00E94090360E38BEB94E0AF
:102330000E943C0A8BE496E40197F1F760E38BEB93
:1023400094E00E943C0AABE4B6E41197F1F760E335
:102350008BEB94E00E943C0A83E592E00197F1F751
:1023600060E28BEB94E00E943C0A8091C0048062A2
:102370000E94550A84E08093C1048CE00E94550AB3
:102380000E94950A82E08093C20486E00E94550A6A
:102390000E94A50A0E94950A60E082E00E94660AF7
:1023A00082E891E00E94A50B61E084E00E94660A49
:1023B0008FE891E00E94A50B6FEF7FEF84ED94E032
:1023C0000E94140660914405613208F060E2809139
:1023D00043050E94710610927D0380937C038091D7
:1023E000470590914805DC01ED91FC910284F3854D
:1023F000E02D09959093460580934505809144050D
:102400008230B8F08091470590914805DC01ED914C
:10241000FC910284F385E02D099520E0382F80910E
:10242000450590914605822B932B9093460580930A
:102430004505E0912D04F0912E0482E08083E09127
:102440002904F0912A041082E0912B04F0912C04CD
:1024500080E1808310923504E0913104F0913204E0
:1024600086E08083E0912F04F091300480818061C8
:102470008083E0912F04F091300480818860808314
:10248000E0912F04F0913004808180688083E09196
:102490002F04F091300480818F7D808388EC482E5A
:1024A000512C612C712C97E3292E312C20E0C22E67
:1024B00020E0D22E34E6E32EF12C0E943B03609301
:1024C00093037093940380939503909396030E94D3
:1024D0001B0D88E991E00E943F0C0E94330D0E9481
:1024E000F60780919103909192030E94D50A809102
:1024F0009003882329F080918F03882309F4CEC3A9
:1025000080918E03811165C00E94950A60E080E091
:102510000E94660A84EA91E00E94A50B0E94AD0A1F
:10252000B1E0B0938E032D9A8FE99FE00197F1F708
:1025300000C00000289891E090931C0468EE73E0BE
:1025400080E090E00E9405010E94DF0780918603F1
:10255000882389F30E94B008AFEFB1EE24E0A150C8
:10256000B0402040E1F700C000000E94DD0731E0EC
:1025700030931C0468EE73E080E090E00E94050157
:102580000E94DF07809186038111F1CF0E94B0087D
:102590004FEF51EE84E0415050408040E1F700C0E1
:1025A00000002D98109288031092890310928A03DC
:1025B00010928B030E94AA0B0E94330DA1CF8A3286
:1025C00009F0F1C02D980E94AA0B0E94330D0E94C1
:1025D000AD0A90918F039D83992309F4C9C260913C
:1025E00088037091890380918A0390918B03A301E2
:1025F00092010E949017CA01B9010E94431920E07C
:1026000030E040E85BE30E94771A0E94651820EEF4
:102610003EE245E652E40E94771A20E030E040E7CF
:1026200053E40E94771A4B015C0110928F030E94C1
:10263000950A83EB91E00E94A50B0E94B60AA1E0E7
:10264000A093000104E010E0BFEF24E33CE0B150B0
:1026500020403040E1F700C0000081EB91E00E9493
:10266000A50B0150110981F761E080E00E94660A24
:1026700080EC91E00E94A50B20E030E040E752E4BE
:10268000C501B4010E9499180E940B19A101461BB3
:10269000570BBA018BEB94E00E94390C8AEC91E065
:1026A0000E94A50B5FEF83ED90E351508040904076
:1026B000E1F700C00000109200010E94330D0E945B
:1026C000950A8EEC91E00E943F0C0E943B03009122
:1026D0009303109194032091950330919603601B0E
:1026E000710B820B930B0E94411920E030E04AE706
:1026F00054E40E949918A50194010E94F91727EB50
:1027000039E540E85FE30E94771A60938203709393
:10271000830380938403909385030E941B0D60E0E4
:1027200081E00E94660A8EED91E00E94A50B409127
:1027300088035091890360918A0370918B038BEB1E
:1027400094E00E94B40B0E94330D0E94F607809122
:102750009103909192030E94D50A0E940F098093E1
:10276000BA048A3209F030C1A1E0A09300010E94AE
:10277000950A60E081E00E94660A88EE91E00E947E
:10278000A50B61E080E00E94660A88EF91E00E945C
:10279000A50B80E092E00E94A50B109290030E948E
:1027A0000F098093BA04109290030E941B0D0E949F
:1027B000F60780919103909192030E94D50A0E949E
:1027C0000F098093BA04833229F0909190039923E2
:1027D00009F4F5CE0E94950A1092000160918203DF
:1027E0007091830380918403909185030E940B195B
:1027F000072E000C880B990B0E94431920E030E053
:1028000041E655E40E94991822E93AE046E85EE381
:102810000E94771A9B01AC016BED7FE089E490E4A4
:102820000E94F81720E030E040E05FE30E94771A52
:102830009B01AC016BED7FE089EC9FE30E94F817F0
:102840000E94E81A69837A838B839C832D9A8FE98F
:102850009FE00197F1F700C000000E94DD0791E0C2
:1028600090931C0420E030E048EA51E469817A81C9
:102870008B819C810E94771A9B01AC0160E070E023
:1028800080E893E40E94F8172CE63EE54FE85BE30E
:102890000E94771A20E03CE742E958E40E94771A48
:1028A0000E9412190E9405010E94B00880918803BD
:1028B00090918903A0918A03B0918B030196A11D89
:1028C000B11D8093880390938903A0938A03B093EA
:1028D0008B0320918703211106C0853D9043A105FC
:1028E000B1050CF4F2CE2D980E94950A8AE092E090
:1028F0000E94A50B61E080E00E94660A86E192E0FA
:102900000E94A50B10E00E943B0380907E039090F4
:102910007F03A0908003B09081039B01AC01281934
:1029200039094A095B0949015A0138EE831633E037
:102930009306A104B10498F060937E0370937F0323
:102940008093800390938103111149C048E0409324
:10295000C70460E08BEB94E00E94C6071D811092D3
:1029600090030E940F098093BA046091900370E075
:102970008DE194E00E94390C8091BA04833429F0EF
:1029800080919003882309F4BECF8CE292E00E94EC
:102990003F0C6091900370E08DE194E00E94390C4F
:1029A00064EF71E080E090E00E94090310928E03D2
:1029B0006091900370E08DE194E00E94390C0E94D8
:1029C000AA0B0E94330D05CE883309F007CF809102
:1029D0000001811101CFB1E0B0930001FFCE109250
:1029E000C70460E08BEB94E00E94C60710E0B7CF0D
:1029F0002D9A8FE99FE00197F1F700C000000111C7
:102A000051C00E94DD0731E030931C0468EE73E092
:102A100080E090E00E9405010E94B0088090880349
:102A200090908903A0908A03B0908B034FEF841A93
:102A3000940AA40AB40A8092880390928903A0920F
:102A40008A03B0928B030E94DF0780918703811174
:102A500008C0012F54ED851650E39506A104B1047A
:102A600084F10E94950A0E94A50A83E792E00E94E1
:102A7000A50B8FEF93EDA0E381509040A040E1F7CC
:102A800000C000000E94DF070E94950A82E492E0E5
:102A90000E94A50B61E080E00E94660A80E592E05A
:102AA0000E94A50B00E00DC02D9AAFE9BFE0119781
:102AB000F1F700C00000B98121E0B227B98301110C
:102AC000A0CFB981BB2309F46CC0289821E02093E2
:102AD0001C0468EE73E080E090E00E9405010E9413
:102AE000B0088091880390918903A0918A03B091E6
:102AF0008B030197A109B1098093880390938903FF
:102B0000A0938A03B0938B030E94DF078091860312
:102B1000882309F446C00E94950A0E94A50A86E807
:102B200092E00E94A50B3FEF43ED50E3315040404F
:102B30005040E1F700C000000E94DF070E94950AA4
:102B400082E492E00E94A50B61E080E00E94660AA8
:102B500080E592E00E94A50B198223C08A3209F019
:102B600041C00E94AA0B0E94330D0E94AD0A2D980D
:102B700010918D03112309F43FC010928D030E9420
:102B8000950A0E94B60A82E492E00E94A50B61E0D9
:102B900080E00E94660A80E592E00E94A50B1982FF
:102BA00000E00E94DF070E940F098093BA04873378
:102BB00009F41ECF893309F477CF8A3209F07FCF29
:102BC0000E94950A83E692E00E94A50B61E080E0F6
:102BD0000E94660A88EF91E00E94A50B80E092E0D7
:102BE0000E94A50B0E940F098093BA04833209F05A
:102BF000B5CF0E94950A63CF0E940F098093BA0453
:102C0000863309F4E8C0A4F4843309F4BBC00CF0A3
:102C100093C0833209F4FDC0C114D10409F44DCC32
:102C20000E940F04882309F448CC0E94000045CC80
:102C30008234A1F154F4883379F78091000188231C
:102C400009F4E3C010920001E7CF833409F455C0C2
:102C5000843411F70E94950A0E94A50A80ED92E043
:102C60000E94A50B61E080E00E94660A86EB92E07C
:102C70000E94A50B109290030E940F098093BA0442
:102C8000109290030E940F098093BA048A3241F196
:102C90008434B1F791E090938D03BECF89E992E03F
:102CA0000E943F0C0E94950A0E94A50A87EA92E0C2
:102CB0000E94A50B61E080E00E94660A86EB92E02C
:102CC0000E94A50B109290030E940F098093BA04F2
:102CD000109290030E940F098093BA048A3219F46B
:102CE0000E94AA0B99CF823421F08091900388230F
:102CF00079F381E080938F038FCF0E94950A0E9421
:102D0000A50A8EEB92E00E94A50B61E080E00E9494
:102D1000660A86EB92E00E94A50B0E940F09809341
:102D2000BA040E940F098093BA048A32C9F283342C
:102D3000C1F710928E0370CF0E94950A0E94A50AD7
:102D400080919103909192038436910591F0A1E0D6
:102D5000A0938C03F0929203E092910381EE92E0B3
:102D60000E94A50B61E080E00E94660A0E94330D7C
:102D700053CF10928C0310929203109291038AEE1B
:102D800092E0EECF0E94950A0E94A50A80919103DD
:102D90009091920344979093920380939103181615
:102DA000190694F4B1E0B0938C0388EF92E00E948E
:102DB000A50B60919103709192038BEB94E00E94BC
:102DC000390C84EF92E0CCCF10928C0310929203D6
:102DD00010929103EACF0E94950A0E94A50A809161
:102DE0009103909192034496909392038093910360
:102DF00021E020938C038436910524F0F092920315
:102E0000E092910387EF92E0D2CF31E0309300015E
:102E100003CF0E94950A0E94A50A83E093E00E94D6
:102E2000A50B61E080E00E94660A86EB92E00E94BA
:102E3000A50B109290030E940F098093BA04109280
:102E400090030E940F098093BA048A3209F448CF94
:102E50008332A9F70E94950A0E94330D0E94F6075B
:102E600080919103909192030E94D50A0E941B0DBC
:102E70002D9A8FE99FE00197F1F700C000000E94B2
:102E8000DD0791E090931C0468EE73E080E090E031
:102E90000E9405010E94B0088090880390908903E9
:102EA000A0908A03B0908B03AFEF8A1A9A0AAA0AFD
:102EB000BA0A8092880390928903A0928A03B09202
:102EC0008B030E94DF0780918703811107C0B4ED57
:102ED0008B16B0E39B06A104B1049CF20E94B008DB
:102EE0002D9860E081E00E94660A8FE093E00E94E6
:102EF000A50B409188035091890360918A037091DA
:102F00008B038BEB94E00E94B40B2AEA36EE46E981
:102F100051E02150304040405040D9F7000009CFE7
:102F2000052E97FB1EF400940E94A71757FD07D0AB
:102F30000E94BA1707FC03D04EF40C94A7175095C3
:102F40004095309521953F4F4F4F5F4F0895909595
:102F50008095709561957F4F8F4F9F4F08950E9488
:102F6000DC17A59F900DB49F900DA49F800D911D1F
:102F700011240895A1E21A2EAA1BBB1BFD010DC04E
:102F8000AA1FBB1FEE1FFF1FA217B307E407F50719
:102F900020F0A21BB30BE40BF50B661F771F881FF5
:102FA000991F1A9469F760957095809590959B018B
:102FB000AC01BD01CF010895A29FB001B39FC00134
:102FC000A39F700D811D1124911DB29F700D811D55
:102FD0001124911D08950E94DC17B7FF0895821BEC
:102FE000930B0895EE0FFF1F0590F491E02D0994C7
:102FF0005058BB27AA270E9410180C94E0190E9471
:10300000D21938F00E94D91920F039F49F3F19F4F1
:1030100026F40C94A8190EF4E095E7FB0C94A21981
:10302000E92F0E94F11958F3BA1762077307840752
:10303000950720F079F4A6F50C94131A0EF4E09598
:103040000B2EBA2FA02D0B01B90190010C01CA0162
:10305000A0011124FF27591B99F0593F50F4503E0D
:1030600068F11A16F040A22F232F342F4427585FFF
:10307000F3CF469537952795A795F0405395C9F717
:103080007EF41F16BA0B620B730B840BBAF09150CF
:10309000A1F0FF0FBB1F661F771F881FC2F70EC06E
:1030A000BA0F621F731F841F48F487957795679541
:1030B000B795F7959E3F08F0B0CF9395880F08F02D
:1030C0009927EE0F979587950895DF93DD27B92F00
:1030D000BF7740E85FE31616170648075B0718F44A
:1030E000D92F0E941F1A9F938F937F936F930E94F3
:1030F000E41AE8E6F0E00E94AB190E94E0192F9173
:103100003F914F915F910E948A1ADD2351F09058B0
:10311000A2EA2AED3FE049EC5FE3D0785D270E9408
:103120001018DF910C94E0190E947E1908F481E0D8
:1031300008950E94AD180C94E0190E94D91958F016
:103140000E94D21940F029F45F3F29F00C94A21993
:1031500051110C94141A0C94A8190E94F11968F3D7
:103160009923B1F3552391F3951B550BBB27AA2740
:1031700062177307840738F09F5F5F4F220F331F7A
:10318000441FAA1FA9F335D00E2E3AF0E0E832D042
:1031900091505040E695001CCAF72BD0FE2F29D045
:1031A000660F771F881FBB1F261737074807AB0717
:1031B000B0E809F0BB0B802DBF01FF2793585F4F8C
:1031C0003AF09E3F510578F00C94A2190C94141A11
:1031D0005F3FE4F3983ED4F3869577956795B7956E
:1031E000F7959F5FC9F7880F911D9695879597F979
:1031F0000895E1E0660F771F881FBB1F62177307F2
:103200008407BA0720F0621B730B840BBA0BEE1F06
:1032100088F7E09508950E9412196894B1110C94F2
:10322000141A08950E94F91988F09F5798F0B92F41
:103230009927B751B0F0E1F0660F771F881F991FEB
:103240001AF0BA95C9F714C0B13091F00E94131A60
:10325000B1E008950C94131A672F782F8827B85F70
:1032600039F0B93FCCF3869577956795B395D9F743
:103270003EF490958095709561957F4F8F4F9F4F4D
:103280000895E89409C097FB3EF490958095709559
:1032900061957F4F8F4F9F4F9923A9F0F92F96E9A2
:1032A000BB279395F695879577956795B795F11117
:1032B000F8CFFAF4BB0F11F460FF1BC06F5F7F4FB4
:1032C0008F4F9F4F16C0882311F096E911C07723C6
:1032D00021F09EE8872F762F05C0662371F096E8CF
:1032E000862F70E060E02AF09A95660F771F881F9E
:1032F000DAF7880F9695879597F90895990F000842
:10330000550FAA0BE0E8FEEF16161706E807F907B7
:10331000C0F012161306E407F50798F0621B730B52
:10332000840B950B39F40A2661F0232B242B252BD3
:1033300021F408950A2609F4A140A6958FEF811D76
:10334000811D089597F99F6780E870E060E0089517
:103350009FEF80EC0895DF93CF931F930F93FF921D
:10336000EF92DF927B018C01689406C0DA2EEF01A8
:103370000E948A1AFE01E894A59125913591459104
:103380005591A6F3EF010E941018FE019701A801C4
:10339000DA9469F7DF90EF90FF900F911F91CF9132
:1033A000DF91089500240A941616170618060906D8
:1033B000089500240A9412161306140605060895AB
:1033C000092E0394000C11F4882352F0BB0F40F433
:1033D000BF2B11F460FF04C06F5F7F4F8F4F9F4F73
:1033E000089557FD9058440F551F59F05F3F71F0F5
:1033F0004795880F97FB991F61F09F3F79F087955C
:103400000895121613061406551FF2CF4695F1DFE4
:1034100008C0161617061806991FF1CF8695710574
:10342000610508940895E894BB2766277727CB01A8
:1034300097F908950E947E1908F48FEF08959B0173
:10344000AC0160E070E080E89FE30C94991816F0FE
:103450000C940D1B0C94A81968940C94A2190E944A
:10346000F919A8F39923C1F3AEF3DF93CF931F9318
:103470000F93FF92C92FDD2788232AF02197660F2B
:10348000771F881FDAF720E030E040E85FEB9FE32A
:10349000883920F0803E38F021968F770E94F91706
:1034A000E5E9F0E004C00E94F917E2ECF0E00E94C8
:1034B000AB198B01BE01EC01FB2E6F57710975959D
:1034C000771F880B990B0E94431928E132E741E3EB
:1034D0005FE30E948A1AAF2D9801AE01FF900F9111
:1034E0001F91CF91DF910E9410180C94E0190E9457
:1034F0008A1A0C94E0190E94D21938F00E94D91946
:1035000020F0952311F00C94A2190C94A819112401
:103510000C94141A0E94F11970F3959FC1F3950F42
:1035200050E0551F629FF001729FBB27F00DB11D47
:10353000639FAA27F00DB11DAA1F649F6627B00DD7
:10354000A11D661F829F2227B00DA11D621F739FC0
:10355000B00DA11D621F839FA00D611D221F749FCE
:103560003327A00D611D231F849F600D211D822F15
:10357000762F6A2F11249F5750409AF0F1F088233C
:103580004AF0EE0FFF1FBB1F661F771F881F915069
:103590005040A9F79E3F510580F00C94A2190C945D
:1035A000141A5F3FE4F3983ED4F3869577956795B8
:1035B000B795F795E7959F5FC1F7FE2B880F911D93
:1035C0009695879597F908959B01AC010C94771A0D
:1035D000DF93D92F0E94311BE695D7952AED3FE066
:1035E00049E45FE3B33A6207730784079507D79509
:1035F0003AF0A2EA49EC90680E9410180E94E01983
:10360000EFEEF0E00E941B1BDD0F13F00E941F1A6B
:10361000DD0F0BF49058DF9108959F3F31F09150EA
:1036200020F4879577956795B795880F911D9695A6
:10363000879597F908959F938F937F936F93FF9347
:10364000EF939B01AC010E94771AEF91FF910E94CA
:10365000AB192F913F914F915F910C94771A0C9475
:10366000A8190E94F919D8F3E894E0E0BB279F5706
:10367000F0F02AED3FE049EC06C0EE0FBB0F661FED
:10368000771F881F28F0B23A62077307840728F073
:10369000B25A620B730B840BE3959A9572F78038DC
:1036A00030F49A95BB0F661F771F881FD2F790489A
:0836B0000C940F1BF894FFCFEE
:1036B8000101010302010004050607302A373434EA
:1036C800303835362339364344434200004000142D
:1036D800005400000000004504A503D2039204032F
:1036E80004E103F5030000000097076A07DA0740C2
:1036F8000763075007410700000000BE0AA503DA68
:1037080007BD040000000004015606BD08524541EB
:10371800445921000D0A00204B4137383035202DFF
:103728002000430020204134393838202D20004320
:1037380020005374617220547261636B657200419A
:103748004456414E43454400696E73696465206C74
:103758006F6F700043616C6962726174696E672E85
:103768002E2E005369642765616C20496E697400C8
:1037780052656D61696E3A207E006D696E007472E3
:1037880061636B207472696767657265640054725F
:1037980061636B696E672000547261636B696E6761
:1037A8002050617573656400232E205265736D0087
:1037B800202A2E2043616E636C005570706572205C
:1037C8004C696D697400432E20526577696E6420D8
:1037D800262043616C69627261746500696E736961
:1037E80064652063616C69627261746520696E69E1
:1037F8007400372E204F70656E20706C616E6B0000
:10380800392E20436C6F736520506C616E6B2020DD
:103818002020004D616E75616C204D2050617573DC
:103828006564005570706572204C696D697420205C
:103838002020202020004C6F776572204C696D692C
:10384800742020202020202000696E736964652080
:1038580063617365204200422E20537461727420A4
:10386800547261636B002A2E204261636B00432E01
:1038780020526577696E6420262043616C69620076
:10388800442E204D616E75616C20436F6E726F6CB3
:103898000046616E3A204D616E0046616E3A2041E5
:1038A80075746F002529002046616E3A204D616EBF
:1038B800202800232E20436F6E74696E75650054AE
:0838C8006F74616C3A200000EE
:00000001FF
