:100000000C94B7000C94DF000C94DF000C94DF001C
:100010000C94DF000C94DF000C94DF000C94DF00E4
:100020000C94DF000C94DF000C94DF000C94631040
:100030000C94DF000C94DF000C94DF000C94DF00C4
:100040000C94A20E0C94DF000C94120F0C94EC0E86
:100050000C94DF000C94DF000C94DF000C94DF00A4
:100060000C94440F0C94DF00084AD73B3BCE016E42
:1000700084BCBFFDC12F3D6C74319ABD56833DDAFF
:100080003D00C77F11BED9E4BB4C3E916BAAAABE0E
:10009000000000803F08000000BE922449123EABE1
:1000A000AAAA2ABECDCCCC4C3E00000080BEABAA92
:1000B000AAAA3E00000000BF000000803F00000030
:1000C0000000084178D3BB4387D1133D190E3CC3D0
:1000D000BD4282AD2B3E68EC8276BED98FE1A93E4F
:1000E0004C80EFFFBE01C4FF7F3F00000000000610
:1000F00064EC1B3C04BC163E3BE5B93CC93C37C232
:100100009E5A3D660498083EEA69AAAA3E0000008D
:10011000803F00000000240027002A0000000000AB
:10012000250028002B0000000000230026002900E5
:10013000040404040404040402020202020203038D
:100140000303030301020408102040800102040895
:100150001020010204081020000000080002010025
:10016000000304070000000000000000FF1011243D
:100170001FBECFEFD8E0DEBFCDBF13E0A0E0B1E0FF
:10018000E8ECF9E302C005900D92A637B107D9F764
:1001900025E0A6E7B3E001C01D92A33BB207E1F75B
:1001A00010E0C7EBD0E004C02197FE010E94751952
:1001B000C63BD107C9F70E94C5110C94E21C0C94F0
:1001C000000096E0899FD0011124A25CBA4F90965E
:1001D0007C936E935F9791E091969C939197E091B9
:1001E000AB05F091AC059091AA05992339F03097B1
:1001F00051F0811108C080915A050994309719F087
:100200005C968C91FACF08950895CF92DF92EF9289
:10021000FF920F931F936B017C01809186048111E3
:1002200008C0A8EEB3E0A7019B010E9432196B0140
:100230007C01C701B6010E94C41A20E030E040E012
:100240005FE30E94FA1B02E010E020E030E0009340
:1002500082041093830420938404309385042091B6
:100260000201222309F4CEC028ECC216D104E10415
:10027000F10408F053C02C982B982A9820918604FA
:100280002111109286042FB72093810478942FE9CE
:1002900030E0309389002093880020E030E040E295
:1002A00051E40E941C1A6B017C010E94951A709304
:1002B000800460937F0460917F047091800490E0DB
:1002C00080E00E94C41A9B01AC01C701B6010E94E4
:1002D0007B196B017C0120E030E0A9010E94171A14
:1002E000811194C01092010180917F04909180044B
:1002F000B0E0A0E080937A0490937B04A0937C0408
:10030000B0937D04809181008160809381001F9172
:100310000F91FF90EF90DF90CF90089524EFC216D9
:1003200021E0D206E104F104B8F42C9A2B982A9823
:1003300054E0C52ED12CE12CF12CC0928204D09235
:100340008304E0928404F092850420E030E040E0F1
:100350005FE30E94FA1B92CF20E2C21623E0D2068E
:10036000E104F104A8F42C982B9A2A9848E0C42EB2
:10037000D12CE12CF12CC0928204D0928304E09223
:100380008404F092850420E030E040E85EE3E1CFB1
:1003900020E1C21627E2D206E104F104A8F42C9A67
:1003A0002B9A2A9830E1C32ED12CE12CF12CC0924B
:1003B0008204D0928304E0928404F092850420E0C9
:1003C00030E040E05EE3C5CF20E4C21622E4D2066E
:1003D0002FE0E206F10408F051CF2C9A2B9A2A9ACA
:1003E00020E2C22ED12CE12CF12CC0928204D092BA
:1003F0008304E0928404F092850420E030E040E839
:100400005DE3A7CF21E02093020138CFA701960139
:1004100060E070E080E89FE30E941C1A0E94951A39
:1004200060937E0481E0809301015ECF833081F090
:1004300028F4813099F08230A9F008958730A9F02E
:100440008830C9F08430B1F4809180008F7D03C082
:10045000809180008F7780938000089584B58F7796
:1004600084BD089584B58F7DFBCF8091B0008F77D8
:100470008093B00008958091B0008F7DF9CFCF9325
:10048000DF93282F30E0F901E85AFE4F8491F901FB
:10049000EC5BFE4FD491F901E05DFE4FC491CC239B
:1004A000A1F081110E941602EC2FF0E0EE0FFF1F69
:1004B000EA5DFE4FA591B491EC91ED2381E090E0CF
:1004C00009F480E0DF91CF91089580E090E0FACFC9
:1004D0001F93CF93DF93282F30E0F901E85AFE4FA6
:1004E0008491F901EC5BFE4FD491F901E05DFE4F80
:1004F000C491CC23A9F0162F81110E941602EC2F73
:10050000F0E0EE0FFF1FE45EFE4FA591B4918FB7B0
:10051000F894EC91111108C0D095DE23DC938FBFC5
:10052000DF91CF911F910895DE2BF8CFCF93DF930A
:1005300090E0FC01EC5BFE4F2491805D9E4FFC013E
:1005400084918823C9F090E0880F991FFC01EE5E2A
:10055000FE4FA591B491FC01E45EFE4FC591D4918C
:1005600061110DC09FB7F8948C91209582238C93D4
:100570008881282328839FBFDF91CF91089562301F
:1005800051F49FB7F8943C91822F809583238C93EC
:10059000E8812E2BEFCF8FB7F894EC912E2B2C9374
:1005A0008FBFEACF8E50806480937C0080917A0068
:1005B000806480937A0080917A0086FDFCCF8091E0
:1005C00078009091790008953FB7F89480910604DF
:1005D00090910704A0910804B091090426B5A89B46
:1005E00005C02F3F19F00196A11DB11D3FBFBA2FC5
:1005F000A92F982F8827BC01CD01620F711D811D85
:10060000911D42E0660F771F881F991F4A95D1F709
:1006100008958F929F92AF92BF92CF92DF92EF9206
:10062000FF924B015C010E94E4026B017C010E947D
:10063000E4026C197D098E099F09683E73408105AB
:100640009105A8F321E0821A9108A108B10888EE6B
:10065000C80E83E0D81EE11CF11C81149104A10492
:10066000B10429F7FF90EF90DF90CF90BF90AF904B
:100670009F908F9008952FB7F89460910204709125
:10068000030480910404909105042FBF08950F93F3
:100690001F93CF93DF93C82FD62F86E0C89FF0011A
:1006A0001124E25CFA4F11A2878D90A1813091054F
:1006B000F1F058F082309105F1F1039709F440C050
:1006C000DF91CF911F910F9108956623C9F361E0E7
:1006D00070E08C2F0E94E1000E943B03609396051E
:1006E000709397058093980590939905E9CF0E94A0
:1006F0003B03009196051091970520919805309144
:100700009905AB01BC01401B510B620B730B80912F
:10071000A8059091A905B0E0A0E084179507A60769
:10072000B70748F462E070E08C2FDF91CF911F9102
:100730000F910C94E10063E070E0D111C1CFF4CFD0
:1007400070E060E0F1CF08950895DC01ED91FC9137
:100750000190F081E02D0994AF92BF92CF92DF9289
:10076000EF92FF920F931F93CF93DF936C017B0166
:100770008B01040F151FEB015E01AE18BF08C017F7
:10078000D10759F06991D601ED91FC910190F0816A
:10079000E02DC6010995892B79F7C501DF91CF912D
:1007A0001F910F91FF90EF90DF90CF90BF90AF908F
:1007B0000895FC01538D448D252F30E0842F90E067
:1007C000821B930B541710F0CF960895019708954C
:1007D000FC01918D828D981761F0A28DAE0FBF2F15
:1007E000B11D5D968C91928D9F5F9F73928F90E06B
:1007F00008958FEF9FEF0895FC01918D828D9817DA
:1008000031F0828DE80FF11D858D90E008958FEF16
:100810009FEF0895FC01918D228D892F90E0805CDF
:100820009F4F821B91098F739927089587E894E061
:100830000E940A0421E0892B09F420E0822F089508
:1008400080E090E0892B29F00E94160481110C941D
:1008500000000895FC01A48DA80FB92FB11DA35A63
:10086000BF4F2C91848D90E001968F739927848FD0
:10087000A689B7892C93A089B1898C9183708064F3
:100880008C93938D848D981306C00288F389E02D94
:1008900080818F7D80830895EF92FF920F931F9345
:1008A000CF93DF93EC0181E0888F9B8D8C8D981323
:1008B0001AC0E889F989808185FF15C09FB7F8942F
:1008C000EE89FF896083E889F9898081837080647B
:1008D00080839FBF81E090E0DF91CF911F910F91C6
:1008E000FF90EF900895F62E0B8D10E00F5F1F4FD5
:1008F0000F731127E02E8C8D8E110CC00FB607FCE4
:10090000FACFE889F989808185FFF5CFCE010E9471
:100910002A04F1CFEB8DEC0FFD2FF11DE35AFF4FB1
:10092000F0829FB7F8940B8FEA89FB8980818062FF
:10093000CFCFCF93DF93EC01888D8823B9F0AA89BC
:10094000BB89E889F9898C9185FD03C0808186FD8A
:100950000DC00FB607FCF7CF8C9185FFF2CF8081D9
:1009600085FFEDCFCE010E942A04E9CFDF91CF9120
:100970000895862F0C943F02862F642F0C946802F2
:10098000862F642F0C94960208952091B303260FAE
:100990003327331F21323105ECF420915004FC0140
:1009A00090E080E0243069F082E00895A091B303E4
:1009B0002191AC014D565C4FA40FB52FB11D2C9366
:1009C0000196861798F38091B303680F6093B30381
:1009D00080E0089581E008951092500481E08093B2
:1009E0004F0410922A0461E082E10E94680261E0F3
:1009F00083E10E946802E9EBF0E080818E7F8083D2
:100A000080818D7F808388E48093B80085E4809323
:100A1000BC000895CF93DF9391E0909392038823D5
:100A2000B9F0C091B800D091BA008091BC008A7B27
:100A30008093BC0060E082E10E94680260E083E194
:100A40000E9468020E94EC04D093BA00C093B800E0
:100A5000DF91CF9108958F929F92AF92BF92CF92E4
:100A6000DF92EF92FF920F931F93CF93DF93D0917A
:100A70007904D13208F0D7C0182FC09178040E94B1
:100A8000E4026B017C018091500481116BC082E013
:100A90008093500410934F048FEF80934E04109274
:100AA0004D04D0934C04A8E5B4E0ECE2F4E080E01F
:100AB000D81391C010922B0480912B04CC0FC82B1B
:100AC000C0932B0480912A04813009F088C01092D1
:100AD0002A040E94E4026B017C0180912B04809324
:100AE000BB008091520490915304A0915404B091A2
:100AF0005504892B8A2B8B2BA1F00E94E4020091D4
:100B000052041091530420915404309155046C19EF
:100B10007D098E099F09061717072807390708F46A
:100B200042C08091BC0083FDD8CF85EC8093BC008F
:100B30000E94E4026B017C0180915004823009F430
:100B400050C080914E048F3F09F46FC080914E04D5
:100B5000803209F46CC080914E04803309F469C07E
:100B600084E026C08091520490915304A0915404D3
:100B7000B0915504892B8A2B8B2B09F484CF0E94CA
:100B8000E4028090520490905304A0905404B090DA
:100B900055046C197D098E099F0986169706A806CB
:100BA000B90608F070CF809151040E940A0585E0D3
:100BB000109257041092790410925604DF91CF914D
:100BC0001F910F91FF90EF90DF90CF90BF90AF906B
:100BD0009F908F9008959D9191938F5F69CF85EE3F
:100BE000A5CF8091520490915304A0915404B091E8
:100BF0005504892B8A2B8B2B09F49ECF0E94E4028B
:100C000000915204109153042091540430915504E2
:100C10006C197D098E099F090617170728073907E0
:100C200008F08ACFC0CF81E0C3CF80E0C1CF82E09F
:100C3000BFCF83E0BDCFEF92FF920F931F93CF936F
:100C4000DF93EC018B017C0183E7E80EF11CD701F7
:100C50008D919C91FE01E159FF4F208131E030934D
:100C60005604209378041092570410927904DC0102
:100C7000ED91FC910190F081E02D0995FE01E05984
:100C8000FF4F8081823058F0F70180819181DC0133
:100C9000ED91FC910190F081E02D612F099581E0AB
:100CA0000E942B05CF58DF4F08831983DF91CF9126
:100CB0001F910F91FF90EF90089521E030E002C066
:100CC000220F331F6A95E2F7FC01EF58FF4F608156
:100CD0007181442341F0262B372B3183208360819F
:100CE00071810C941B062095309526233723F5CF70
:100CF000CF92DF92EF92FF920F931F93CF93DF93E8
:100D0000D82FC62F613208F098C00E94E4026B0110
:100D10007C018091500481116BC081E0809350046C
:100D200080934F049FEF90934E0410924D049C0FBC
:100D300090934C0480932B0480912B04DD0FD82BCF
:100D4000D0932B0480912A04813009F078C010924E
:100D50002A040E94E4026B017C0180912B048093A1
:100D6000BB008091520490915304A0915404B0911F
:100D70005504892B8A2B8B2BA1F00E94E402009151
:100D800052041091530420915404309155046C196D
:100D90007D098E099F09061717072807390708F4E8
:100DA00048C08091BC0083FDD8CF85EC8093BC0007
:100DB0000E94E4026B017C0180915004813009F4AF
:100DC00040C080914D048C1710F4C0914D04ECE2AA
:100DD000F4E0AAE0B4E080E08C1355C08C2FDF91E2
:100DE000CF911F910F91FF90EF90DF90CF900895DA
:100DF0008091520490915304A0915404B0915504F1
:100E0000892B8A2B8B2B09F484CF0E94E40200915A
:100E100052041091530420915404309155046C19DC
:100E20007D098E099F09061717072807390708F05B
:100E300070CF809151040E940A05C0E0CFCF85EEAB
:100E4000B5CF8091520490915304A0915404B09175
:100E50005504892B8A2B8B2B09F4AECF0E94E40218
:100E60000091520410915304209154043091550480
:100E70006C197D098E099F0906171707280739077E
:100E800008F09ACFD6CF91919D938F5FA5CF08950B
:100E9000E091DB038091DA03E81730F4F0E0E65FDD
:100EA000FB4F808190E008958FEF9FEF0895909120
:100EB000DB038091DA032FEF3FEF981748F4E92F17
:100EC000F0E0E65FFB4F208130E09F5F9093DB0313
:100ED000C90108958091DA039091DB03891B990B76
:100EE0000895CF92DF92EF92FF920F931F93CF93CB
:100EF000DF937C01CB018A0120915604222389F0E3
:100F0000EB016B01C40ED51ECC15DD0569F06991AE
:100F1000D701ED91FC910190F081E02DC701099579
:100F2000F3CF642F0E94C504C801DF91CF911F91B8
:100F30000F91FF90EF90DF90CF900895CF93DF93C4
:100F40001F92CDB7DEB76983209156042223F9F0B2
:100F500020917904203258F021E030E0FC01338305
:100F6000228390E080E00F90DF91CF9108958091EF
:100F70005704E82FF0E0E85AFB4F998190838F5F88
:100F8000809357048093790481E090E0ECCF61E096
:100F9000CE0101960E94C504F7CFFC01248131E007
:100FA00030935604209378041092570410927904D9
:100FB0008485682B82E395E00E949E0781E00C9473
:100FC0002B0590E080E00895289A089584E00E941F
:100FD0003F02892B61F481E08093F00382E00E945C
:100FE0003F02892B39F481E08093F1030895109238
:100FF000F003F4CF1092F10308958F929F92AF9275
:10100000BF92CF92DF92EF92FF928091F60381110F
:1010100094C0C0908E03D0908F03E0909003F09026
:10102000910380908A0390908B03A0908C03B090E2
:101030008D03A5019401C701B6010E949D1B1816DE
:101040004CF4C0928603D0928703E0928803F0921A
:10105000890310C0A5019401C701B6010E94171AA7
:1010600087FFEFCF8092860390928703A092880338
:10107000B0928903C0908603D0908703E0908803E4
:10108000F090890320E030E044E152E4C701B6016A
:101090000E949D1B87FD5AC081E08093850320E05C
:1010A00030E044E152E4C701B6010E947B1920E020
:1010B00030E048E452E40E94FA1B20E030E040E0D7
:1010C0005EE30E94FA1B20E030E048E452E40E9414
:1010D0007C190E948E1A7093FC036093FB0380912D
:1010E0008503882351F120E030E044E152E4C70158
:1010F000B6010E94171A87FF20C020E030E044E0CC
:1011000052E4C701B6010E947B1920E030E04CE8B0
:1011100052E40E94FA1B20E030E040E451E40E94D7
:101120001C1A20E030E040EF51E40E947C190E943C
:101130008E1A7093FC036093FB03FF90EF90DF9097
:10114000CF90BF90AF909F908F90089520E030E0B7
:1011500044E052E4C701B6010E94171A87FFBFCFCF
:101160001092FC031092FB0310928503B8CF80917C
:10117000820490918304A0918404B0918504892B0A
:101180008A2B8B2BA1F70895CF92DF92EF92FF92DB
:101190000F931F93CF93DF93EC0181E090E07C01EC
:1011A00002C0EE0CFF1C6A95E2F76E0180E7C80EE4
:1011B000D11CD6016C91613208F060E2FE01E15968
:1011C000FF4F80810E9478061092DB038093DA0340
:1011D000CD58DF4F88819981DC01ED91FC9102842B
:1011E000F385E02D09958C01F6018081823060F055
:1011F00088819981DC01ED91FC910284F385E02DD9
:10120000099520E0022B182B0E211F2181E090E090
:101210000E151F0511F090E080E0DF91CF911F9136
:101220000F91FF90EF90DF90CF9008956F927F9293
:101230008F929F92AF92BF92CF92DF92EF92FF92E6
:101240000F931F93CF93DF9381E08093AA050E94B1
:101250003B0300919A0510919B0520919C053091CC
:101260009D05AB01BC01401B510B620B730B8091C0
:10127000A6059091A705B0E0A0E084179507A60702
:10128000B70708F0FAC0712C812C912C540183947B
:101290008091A505781608F050C0E72CF12CE0915C
:1012A000A205F091A305EE0DFF1D40E060818EE3E5
:1012B00095E00E945D0695018401072C04C0000F93
:1012C000111F221F331F0A94D2F768010095109551
:1012D000612C8091A405681608F5C62DD0E0E09138
:1012E000A005F091A105EC0FFD1F60818EE395E054
:1012F0000E94C4082496CC0FDD1FC25CDA4F892BF4
:1013000041F4888199818C299D29998388836394EC
:10131000E0CF8881998180239123F7CF8091A20526
:101320009091A305E80EF91E41E0F70160818EE37C
:1013300095E00E945D067394ABCF2EE3C22E25E0AC
:10134000D22EE6018FEF9FEF2F8D38A1232B21F4B2
:101350001C8E9E8F8D8F19A22696F5E0CA37DF0767
:1013600099F710E096E0B92E8091A405181708F0BF
:1013700052C000E0E12EF12CEE0CFF1CC7018A5B8D
:101380009A4F7C012091A505021708F042C0F70191
:1013900060817181002E02C0769567950A94E2F70C
:1013A000129F90011124200F311DEEE3F5E080E043
:1013B000458D568D2417350709F463C08F5F369627
:1013C0008A30B1F760FF23C0EEE3F5E090E080E003
:1013D000448D411117C0E0919E05F0919F05E20FE9
:1013E000F31F4081B89EF001B99EF00D1124E25C1C
:1013F000FA4F448F368F258F10A2178E61E00E941E
:10140000470305C0019636968A30910509F70F5FAC
:10141000B9CF1F5FA9CF10E0F60181A18111182F6C
:10142000F6E0CF0ED11CCC15DD05B1F70E943B03D1
:1014300060939A0570939B0580939C0590939D05FE
:101440001123D9F080915F058823B9F080915D0563
:1014500090915E05019789F480915A05DF91CF91B3
:101460001F910F91FF90EF90DF90CF90BF90AF90C2
:101470009F908F907F906F9008951092AA0580E0C2
:10148000EDCF6170BCCF0F931F93CF938C01C62F0C
:101490000E94CD076C2F6460C8010E94CD076C2F9D
:1014A0006B7FC8010E94CD0783EC90E00197F1F7B4
:1014B000CF911F910F910895CF93C82F682F607F10
:1014C00085E295E00E94430A80E1C89FB0011124A3
:1014D00085E295E0CF910C94430ACF93DF93CDB78B
:1014E000DEB728970FB6F894DEBF0FBECDBF98E0E9
:1014F000EBE1F1E0DE01119601900D929A95E1F792
:1015000090912D05961708F46FEF70E0660F771F26
:1015100021E030E02C0F3D1F620F731FFB01908113
:10152000890F806828960FB6F894DEBF0FBECDBF36
:10153000DF91CF910C945C0A81E00E945C0A8BE3FE
:101540009FE10197F1F780912E05882321F060E05B
:1015500080E00C946D0A089582E00E945C0A8BE39F
:101560009FE10197F1F70895E5E2F5E08681982F74
:101570009160968389600C945C0AE5E2F5E08681CF
:101580008E7F868388600C945C0A0F931F93CF93A1
:101590008C01C62F607F61600E94430A80E1C89F72
:1015A000B00111246160C8010E94430A81E090E00B
:1015B000CF911F910F910895CF92DF92EF92FF92FA
:1015C0000F931F93CF93DF938C012BE930E0DC0165
:1015D0000E946E1924E630E040E050E00E941319AA
:1015E00069017A0184E6C80ED11CE11CF11CE601F8
:1015F00061E083E00E9496022097B9F460E083E006
:101600000E946802012B09F057C061E083E00E944C
:10161000960260E083E0DF91CF911F910F91FF90E0
:10162000EF90DF90CF900C946802CF3FD10511F47A
:1016300061E0E5CFEBE5F1E0E491E33019F140F44E
:10164000E130B1F0E230C9F0C038D1058CF7D6CF27
:10165000E73011F1E83041F1E430B1F780918000DA
:10166000806280938000D0928B00C0928A00CACFA3
:1016700084B5806884BDC7BCC5CF84B5806284BD95
:10168000C8BCC0CF80918000806880938000D092D9
:101690008900C0928800B6CF8091B00080688093A6
:1016A000B000C092B300AECF8091B0008062809352
:1016B000B000C092B400A6CFDF91CF911F910F91DF
:1016C000FF90EF90DF90CF90089585ED8093BC0060
:1016D0008091520490915304A0915404B091550408
:1016E0000796A11DB11D23E0B695A79597958795FF
:1016F0002A95D1F72091BC0024FD03C0109250041C
:101700000895409152045091530460915404709193
:101710005504452B462B472B69F30097A105B105CE
:1017200041F025E32A95F1F700000197A109B109DD
:10173000E1CF809151040C940A05FB010190002037
:10174000E9F73197AF01461B570BDC01ED91FC9196
:101750000280F381E02D09948F929F92AF92BF9205
:10176000EF92FF920F931F93CF93DF93CDB7DEB726
:10177000A1970FB6F894DEBF0FBECDBF7C01FA0172
:10178000CB0119A2223008F42AE08E010F5D1F4F11
:10179000822E912CB12CA12CBF01A50194010E9495
:1017A0003D19F901CA016A300CF5605DD8016E93EC
:1017B0008D01232B242B252B79F790E080E01097C7
:1017C00021F0BD01C7010E949D0BA1960FB6F894B0
:1017D000DEBF0FBECDBFDF91CF911F910F91FF9064
:1017E000EF90BF90AF909F908F900895695CDECF8F
:1017F000CF92DF92EF92FF920F931F93CF93DF93DD
:1018000077FF1DC06A017B01EC016DE20E94A50318
:101810008C0144275527BA014C195D096E097F09CF
:101820002AE0CE010E94AC0B800F911FDF91CF9177
:101830001F910F91FF90EF90DF90CF9008952AE0D5
:10184000DF91CF911F910F91FF90EF90DF90CF909C
:101850000C94AC0BAB01770F660B770B0C94F80B69
:10186000CF93DF93BC0187E894E00E949D0BEC01CD
:101870006DE571E087E894E00E949D0B8C0F9D1F41
:10188000DF91CF9108954F925F926F927F928F92E6
:101890009F92AF92BF92CF92DF92EF92FF920F93FF
:1018A0001F93CF936B017C01742EAC019B010E94AE
:1018B000901C60E671E0811126C046015701E89452
:1018C000B7F82FEF3FEF4FE75FE7C501B4010E9484
:1018D000901C81110CC02FEF3FEF4FE75FE7C50170
:1018E000B4010E94171A64E671E0181664F02FEF35
:1018F0003FEF4FE75FE4C701B6010E949D1B18163A
:10190000ACF468E671E087E894E0CF911F910F9105
:10191000FF90EF90DF90CF90BF90AF909F908F900F
:101920007F906F905F904F900C949D0B2FEF3FEF47
:101930004FE75FECC701B6010E94171A87FDE1CFA0
:1019400020E030E0A901C701B6010E94171A10E09B
:1019500000E087FF0AC06DE287E894E00E94A503DB
:101960008C01F7FAF094F7F8F094C0E060E070E0D2
:1019700080E09FE37C1641F020E030E040E251E45B
:101980000E941C1ACF5FF6CFA70196010E947C1916
:101990002B013C010E94951A4B015C012AE0BC011D
:1019A000A40187E894E00E94AC0B7C01E00EF11EDC
:1019B000CC23D1F1C501B4010E94C41A9B01AC0132
:1019C000C301B2010E947B194B015C016EE287E802
:1019D00094E00E94A503E80EF91EC15028F120E012
:1019E00030E040E251E4C501B4010E94FA1B2B0132
:1019F0003C010E94951A4B01B12CA12C2AE0B501A3
:101A0000A40187E894E00E94AC0BE80EF91EC50122
:101A1000B4010E94C41A9B01AC01C301B2010E942F
:101A20007B194B015C01D9CFC701CF911F910F9159
:101A3000FF90EF90DF90CF90BF90AF909F908F90EE
:101A40007F906F905F904F9008950C949D0B0E9433
:101A50009C0A60E085E00E946D0A6CE671E085E218
:101A600095E00C94250D8F929F92AF92BF92CF92EA
:101A7000DF92EF92FF92CF93DF9385E10E94D20233
:101A8000BC01990F880B990B0E94C61A9B01AC01EF
:101A900060E070EC8FE794E40E941C1A20E030E0D4
:101AA00040E85FE30E947B1920E030E44CE156E41B
:101AB0000E94FA1B0E94B21B6B017C012CE63FECDA
:101AC00048E554E30E94FA1BA70196010E94FA1B05
:101AD000A70196010E94FA1B4B015C0126ED34E63A
:101AE00049E759E3C701B6010E94FA1B2BEC38E421
:101AF00044E85AE30E947C199B01AC01C501B40182
:101B00000E947C199B01AC0160E070E080E89FE3DB
:101B10000E941C1A23E333E948E853E40E947B192E
:101B200060938E0370938F0380939003909391033F
:101B30001092810310928203109283031092840307
:101B4000CAE0D0E080E10E94D202BC01990F880B6C
:101B5000990B0E94C61A20E539EA4BE950E40E942D
:101B6000FA1B29E23CE54FE054E40E947B192DE288
:101B70003AEB48EE5EE30E94FA1B2091810330911C
:101B8000820340918303509184030E947C196093E7
:101B9000810370938203809383039093840321973E
:101BA00089F620E030E040E251E40E941C1A9B01DB
:101BB000AC0160E070E080EA91E40E947B196093E0
:101BC0008A0370938B0380938C0390938D0320E0A2
:101BD00030E048E252E40E949D1B181614F4109263
:101BE0000001DF91CF91FF90EF90DF90CF90BF90F9
:101BF000AF909F908F9008950E94BD0A8091000140
:101C0000882379F088E08093310560E085E295E0F3
:101C10000E94CD070E94E6070E94330D1092FA033E
:101C2000089510923105F1CFCF92DF92EF92FF929B
:101C30000F931F930E94330D0E943B0300917D037D
:101C400010917E0320917F03309180036B017C0112
:101C5000C01AD10AE20AF30A97018601083B1B4029
:101C60002105310508F467C060937D0370937E03FE
:101C700080937F039093800380917B0390917C03FA
:101C8000892BA9F581E090E090937C0380937B03FE
:101C900061E080E00E946D0A63E771E085E295E013
:101CA0000E94250D60918A0370918B0380918C03B3
:101CB00090918D030E948E1A85E295E00E942A0C75
:101CC00062EE72E085E295E00E94250D6FED85E2FF
:101CD00095E00E94A5036EE771E085E295E01F9113
:101CE0000F91FF90EF90DF90CF900C94250D109204
:101CF0007C0310927B0361E080E00E946D0A60E843
:101D000071E085E295E00E94250D60918E0370914F
:101D10008F0380919003909191030E948E1A85E227
:101D200095E00E942A0C6FED85E295E00E94A503E4
:101D30006BE871E0D2CF1F910F91FF90EF90DF9091
:101D4000CF9008951F920F920FB60F9211242F93E8
:101D50003F938F939F93AF93BF9380910204909191
:101D60000304A0910404B09105043091010423E020
:101D7000230F2D3758F50196A11DB11D20930104A5
:101D80008093020490930304A0930404B093050489
:101D90008091060490910704A0910804B091090471
:101DA0000196A11DB11D8093060490930704A09392
:101DB0000804B0930904BF91AF919F918F913F9117
:101DC0002F910F900FBE0F901F90189526E8230FAC
:101DD0000296A11DB11DD2CF1F920F920FB60F9286
:101DE00011242F933F934F935F936F937F938F9320
:101DF0009F93AF93BF93EF93FF9387E894E00E9484
:101E00002A04FF91EF91BF91AF919F918F917F91A4
:101E10006F915F914F913F912F910F900FBE0F9057
:101E20001F9018951F920F920FB60F9211242F93A7
:101E30008F939F93EF93FF93E0919704F091980411
:101E40008081E0919D04F0919E0482FD1BC09081F1
:101E50008091A0048F5F8F732091A104821741F0BD
:101E6000E091A004F0E0E957FB4F958F8093A00428
:101E7000FF91EF919F918F912F910F900FBE0F9037
:101E80001F9018958081F4CF1F920F920FB60F927A
:101E900011242F933F934F935F936F937F938F936F
:101EA0009F93AF93BF93EF93FF938091B900887F87
:101EB000803609F44AC0F0F5883209F4A7C018F555
:101EC000803109F49BC0B8F4882309F4F9C0883044
:101ED00009F494C0FF91EF91BF91AF919F918F91C1
:101EE0007F916F915F914F913F912F910F900FBE16
:101EF0000F901F901895883109F488C0803251F7EF
:101F000080934E0414C0803409F49DC040F48033A3
:101F1000B9F38833F9F680934E0485ECB0C0803570
:101F200009F485C0883509F496C0883499F60E9472
:101F3000650BD0CF883909F48CC038F5883729F083
:101F400050F4883611F0803729F683E080935004EE
:101F50001092D50357C0883809F47BC0803919F036
:101F6000803809F0B7CF8091D503803208F071C076
:101F7000E091D50381E08E0F8093D5038091BB0063
:101F8000F0E0EB54FC4F80833DC0803B39F0E0F43F
:101F9000803A09F479C0883A09F09CCF84E08093B4
:101FA00050041092B4031092B303E091D803F0915F
:101FB000D90309958091B30381110FC081E080930B
:101FC000B3031092930309C0803C09F4A6CF883C68
:101FD00009F4A3CF883B09F07DCFE091B40381E001
:101FE0008E0F8093B403F0E0ED56FC4F8081809318
:101FF000BB009091B4038091B30329C080912B045E
:102000008093BB0085EC8093BC0064CF90914D041D
:1020100080914C04981758F5E0914D0481E08E0FA3
:1020200080934D04F0E0E45DFB4F8081E9CFE091C7
:102030004D0481E08E0F80934D048091BB00F0E051
:10204000E45DFB4F808390914D0480914C04981780
:10205000C8F285E8D8CFE0914D0481E08E0F8093DF
:102060004D048091BB00F0E0E45DFB4F80838091E4
:102070004F0481115CCF81E080932A0484EA80932D
:10208000BC001092500426CF85EC8093BC001092C7
:1020900050048091D503803230F4E091D503F0E014
:1020A000EB54FC4F10826091D50370E0E091D603B1
:1020B000F091D70385EB93E009951092D5030ACFF1
:1020C00010924E0434CF1F920F920FB60F9211242C
:1020D0002F933F934F935F936F937F938F939F9330
:1020E000AF93BF932091790330917A0380917F045D
:1020F000909180042817390708F457C085B192E001
:10210000892785B99091780380917E04981365C0E2
:1021100080910101882309F460C080917F0490912F
:10212000800401969093800480937F04109278033A
:102130008091760390917703019690937703809333
:10214000760310927A03109279038091760390912E
:1021500077034091820450918304609184047091CC
:102160008504B0E0A0E084179507A607B707E8F05C
:1021700080918100887F8093810010928500109269
:1021800084002998809181048FBF10927A03109265
:1021900079031092820410928304109284041092A6
:1021A00085041092770310927603809179039091C1
:1021B0007A03019690937A0380937903BF91AF914C
:1021C0009F918F917F916F915F914F913F912F914F
:1021D0000F900FBE0F901F90189580917A049091E8
:1021E0007B04A0917C04B0917D0490938004809343
:1021F0007F04809178038F5F8093780399CF10924A
:102200008A041092890488EE93E0A0E0B0E0809305
:102210008B0490938C04A0938D04B0938E0427E2DA
:1022200031E0309388042093870425EC30E030932C
:1022300094042093930424EC30E03093960420938C
:10224000950420EC30E0309398042093970421EC1F
:1022500030E030939A042093990422EC30E03093DC
:102260009C0420939B0426EC30E030939E04209342
:102270009D041092A0041092A1041092A204109246
:10228000A30410923505109234058093360590937F
:102290003705A0933805B093390589E391E0909311
:1022A0003305809332051092400510924405109238
:1022B000430510924505EAE5F5E010821482138289
:1022C0001582369685E0E639F807B9F787E091E0A0
:1022D0009093A1058093A00583E091E09093A305DE
:1022E0008093A20584E08093A4058093A5058BE0EC
:1022F00091E090939F0580939E058AE090E09093F3
:10230000A7058093A60584EF91E09093A90580939B
:10231000A8051092AC051092AB0510929A05109288
:102320009B0510929C0510929D051092AA0587E5C9
:1023300091E090933F0580933E0586E28093AD0542
:1023400081E08093AE0582E395E09093B20580939F
:10235000B10510922805109227058BE491E0909327
:1023600026058093250510922E0587E28093290586
:1023700080E180932F0582E0809330051092310533
:102380000E941609809324050895789484B582608C
:1023900084BD84B5816084BD85B5826085BD85B509
:1023A000816085BD80916E00816080936E00109287
:1023B0008100809181008260809381008091810002
:1023C0008160809381008091800081608093800093
:1023D0008091B10084608093B1008091B0008160F1
:1023E0008093B00080917A00846080937A0080911D
:1023F0007A00826080937A0080917A008160809375
:102400007A0080917A00806880937A001092C100EF
:1024100062E084E00E94960262E082E00E949602FE
:1024200061E083E00E94960260E087E00E949602ED
:1024300062E080E10E9496028FE99FE00197F1F748
:1024400000C00000219A299894B184B121E030E0C5
:1024500001C0220F9A95EAF7822B84B9259A2D9A0A
:10246000249A239A229A809180008360809380002E
:102470008091810088618093810080916F008260EB
:1024800080936F001092DB031092DA0310925704CE
:10249000109279040E94EC0483EA93E09093D903AC
:1024A0008093D80384EA93E09093D7038093D60374
:1024B0000E94EC0410922A0580913005823018F0B9
:1024C00098E090932A0580932D0562E370E080E008
:1024D00090E00E9409036091310585E295E00E9439
:1024E000CD0768EE73E080E090E00E94090360E3AE
:1024F00085E295E00E94430ACBE4D6E4CE01019741
:10250000F1F760E385E295E00E94430A2197F1F735
:1025100060E385E295E00E94430A83E592E001973B
:10252000F1F760E285E295E00E94430A80912A0576
:1025300080620E945C0A84E080932B058CE00E94FC
:102540005C0A0E949C0A82E080932C0586E00E942F
:102550005C0A0E94AC0A0E949C0A60E082E00E9431
:102560006D0A6EE871E085E295E00E94250D61E05C
:1025700084E00E946D0A6BE971E085E295E00E94BB
:10258000250D6FEF7FEF8EE395E00E941B066091B3
:10259000AE05613208F060E28091AD050E947806D8
:1025A0001092DB038093DA038091B1059091B2051C
:1025B000DC01ED91FC910284F385E02D0995909367
:1025C000B0058093AF058091AE058230B8F0809160
:1025D000B1059091B205DC01ED91FC910284F38587
:1025E000E02D099520E0382F8091AF059091B0053E
:1025F000822B932B9093B0058093AF05E0919704C5
:10260000F091980482E08083E0919304F091940427
:102610001082E0919504F091960480E180831092FD
:102620009F04E0919B04F0919C0486E08083E091FC
:102630009904F0919A04808180618083E0919904EB
:10264000F0919A04808188608083E0919904F091F0
:102650009A04808180688083E0919904F0919A04C3
:1026600080818F7D808311E084E6282E312C0E94AA
:102670003B036093FD037093FE038093FF039093ED
:1026800000040E94FC0D84EA91E00E94300C0E943C
:10269000140E0E94FD078091FB039091FC030E94A1
:1026A000DC0A8091FA03882329F08091F9038823BA
:1026B00009F46BC48091F803811164C00E949C0AE4
:1026C00060E080E00E946D0A60EB71E085E295E0D9
:1026D0000E94250D0E94B40A1093F8032D9A8FE9E9
:1026E0009FE00197F1F700C000002898109386043E
:1026F00068EE73E080E090E00E9405010E94E6072A
:102700008091F003882391F30E94B7089FEFA1EE18
:10271000B4E09150A040B040E1F700C000000E943A
:10272000E4071093860468EE73E080E090E00E9476
:1027300005010E94E6078091F0038111F2CF0E940B
:10274000B7082FEF31EE44E0215030404040E1F730
:1027500000C000002D981092F2031092F303109223
:10276000F4031092F5030E94270D0E94140EA2CFCD
:102770008A3209F0D7C02D980E94270D0E94140EAE
:102780000E94B40A0091F903002309F45AC360912E
:10279000F2037091F3038091F4039091F50328EC18
:1027A00030E040E050E00E941319CA01B9010E94D4
:1027B000C61A20E030E040E85BE30E94FA1B0E946A
:1027C000E81920EE3EE245E652E40E94FA1B20E0C2
:1027D00030E040E753E40E94FA1B2B013C011092C9
:1027E000F9030E949C0A6FEB71E085E295E00E947C
:1027F000250D0E94BD0A1093000168EE73E080E091
:1028000090E00E940903C4E0D0E06AEF70E080E04D
:1028100090E00E9409036DEB71E085E295E00E9473
:10282000250D219791F7109200010E94140E0E942D
:102830009C0A8DEC91E00E94300C0E943B03C090FA
:10284000FD03D090FE03E090FF03F09000046C19AC
:102850007D098E099F090E94C41A20E030E04AE7F2
:1028600054E40E941C1AA30192010E947C1927EBD8
:1028700039E540E85FE30E94FA1B6093EC03709334
:10288000ED038093EE039093EF030E94FC0D60E054
:1028900081E00E946D0A6DED71E085E295E00E9495
:1028A000250D4091F2035091F3036091F403709170
:1028B000F50385E295E00E94F80B0E94140E0E9439
:1028C000FD078091FB039091FC030E94DC0A0E94AB
:1028D0001609809324058A3209F0D9C110930001AA
:1028E0000E949C0A60E081E00E946D0A67EE71E040
:1028F00085E295E00E94250D61E080E00E946D0A6E
:1029000067EF71E085E295E00E94250D6FEF71E0C1
:1029100085E295E00E94250D1092FA030E941609A7
:10292000809324051092FA030E94FC0D0E94FD077B
:102930008091FB039091FC030E94DC0A0E9416091F
:1029400080932405833229F09091FA03992309F4A6
:102950000FCF0E949C0A109200016091EC037091CD
:10296000ED038091EE039091EF030E948E1A6B01AC
:1029700069E072E087E894E00E94250DB60187E8DF
:1029800094E00E942A0CB601DD0C880B990B0E9482
:10299000C61A20E030E041E655E40E941C1A22E904
:1029A0003AE046E85EE30E94FA1B6093E40370930A
:1029B000E5038093E6039093E7036CE172E087E818
:1029C00094E00E94250D6091E4037091E5038091ED
:1029D000E6039091E70344E00E94430C2091E40356
:1029E0003091E5034091E6035091E7036BED7FE002
:1029F00089E490E40E947B1920E030E040E05FE34E
:102A00000E94FA1B6093E0037093E1038093E2035A
:102A10009093E30365E272E087E894E00E94250D5D
:102A20006091E0037091E1038091E2039091E303F0
:102A300044E00E94430C2091E0033091E103409177
:102A4000E2035091E3036BED7FE089EC9FE30E948A
:102A50007B190E946B1C20E030E048EA51E40E94A0
:102A6000FA1B6093DC037093DD038093DE03909385
:102A7000DF036CE272E087E894E00E94250D60912C
:102A8000DC037091DD038091DE039091DF0342E06F
:102A90000E94430C2091DC033091DD034091DE0362
:102AA0005091DF0360E070E080E893E40E947B19BE
:102AB0006B017C016AE372E087E894E00E94250DD7
:102AC00042E0C701B6010E94430C2CE63EE54FE808
:102AD0005BE3C701B6010E94FA1B4B015C0120E0D9
:102AE0003CE742E958E40E94FA1B0E94951A6B01E8
:102AF0007C0169E472E087E894E00E94250D42E0E1
:102B0000C501B4010E94430C62EE72E087E894E0D4
:102B10000E94250D2AE0B701A60187E894E00E94F3
:102B2000AC0B2D9A8FE99FE00197F1F700C00000F0
:102B30000E94E40710938604C701B6010E940501B4
:102B400061E572E087E894E00E94250D2AE0B70174
:102B5000A60187E894E00E94AC0B6DE571E087E880
:102B600094E00E949D0B0E94B7088091F20390911F
:102B7000F303A091F403B091F5030196A11DB11DDB
:102B80008093F2039093F303A093F403B093F503BF
:102B90002091F103211106C0853D9043A105B105A7
:102BA0000CF44BCE2D980E949C0A68E672E085E2F8
:102BB00095E00E94250D61E080E00E946D0A64E7C7
:102BC00072E085E295E00E94250DC0E00E943B0383
:102BD000C090E803D090E903E090EA03F090EB03A3
:102BE0009B01AC012C193D094E095F0969017A016D
:102BF00038EEC31633E0D306E104F10498F0609395
:102C0000E8037093E9038093EA039093EB03C11107
:102C100048C048E04093310560E085E295E00E94BD
:102C2000CD07C02F1092FA030E9416098093240545
:102C30006091FA0370E087E894E00E942A0C80918A
:102C40002405833429F08091FA03882309F4BECF48
:102C50008AE892E00E94300C6091FA0370E087E805
:102C600094E00E942A0C64EF71E080E090E00E9402
:102C700009031092F8036091FA0370E087E894E08A
:102C80000E942A0C0E94270D0E94140E7BCD8833CF
:102C900009F063CE8091000181115DCE1093000197
:102CA0005CCE1092310560E085E295E00E94CD0790
:102CB000C0E0B8CF2D9A8FE99FE00197F1F700C0EF
:102CC0000000C11156C00E94E4071093860468EE0C
:102CD00073E080E090E00E9405010E94B708C09078
:102CE000F203D090F303E090F403F090F5032FEF9C
:102CF000C21AD20AE20AF20AC092F203D092F30395
:102D0000E092F403F092F5030E94E6078091F1034C
:102D1000811108C0C02F34EDC31630E3D306E1049F
:102D2000F104A4F10E949C0A0E94AC0A61ED72E0D9
:102D300085E295E00E94250D4FEF53ED80E3415071
:102D400050408040E1F700C000000E94E6070E946A
:102D50009C0A60EA72E085E295E00E94250D61E040
:102D600080E00E946D0A6EEA72E085E295E00E94C2
:102D7000250DC0E00BC02D9AAFE9BFE01197F1F728
:102D800000C00000B1E0DB27C1119DCFDD2309F4B5
:102D900075C028981093860468EE73E080E090E098
:102DA0000E9405010E94B7088091F2039091F303FD
:102DB000A091F403B091F5030197A109B1098093A3
:102DC000F2039093F303A093F403B093F5030E94EE
:102DD000E6078091F003882309F450C00E949C0A02
:102DE0000E94AC0A64EE72E085E295E00E94250D37
:102DF0009FEFA3EDB0E39150A040B040E1F700C0D9
:102E000000000E94E6070E949C0A60EA72E085E2E8
:102E100095E00E94250D61E080E00E946D0A6EEA57
:102E200072E085E295E00E94250DD0E027C08A324D
:102E300009F04BC00E94270D0E94140E0E94B40A94
:102E40002D980091F703002309F449C01092F7036D
:102E50000E949C0A0E94BD0A60EA72E085E295E049
:102E60000E94250D61E080E00E946D0A6EEA72E02A
:102E700085E295E00E94250DD0E0C0E00E94E607C3
:102E80000E94160980932405873309F413CF8933F0
:102E900009F471CF8A3209F077CF0E949C0A61EC65
:102EA00072E085E295E00E94250D61E080E00E94DD
:102EB0006D0A67EF71E085E295E00E94250D6FEFE6
:102EC00071E085E295E00E94250D0E94160980932D
:102ED0002405833209F0ABCF0E949C0A55CF0E9493
:102EE000160980932405863309F4F5C0ACF48433C5
:102EF00009F4C7C00CF09EC0833209F408C180E019
:102F000090E0892B09F4B3CB0E941604882309F4BE
:102F1000AECB0E940000ABCB8234B9F154F48833BD
:102F200071F780910001882309F4EEC0109200012E
:102F3000E6CF833409F45BC0843409F70E949C0A0D
:102F40000E94AC0A6EE273E085E295E00E94250DD6
:102F500061E080E00E946D0A64E173E085E295E043
:102F60000E94250D1092FA030E94160980932405F1
:102F70001092FA030E941609809324058A3259F1AF
:102F80008434B1F71093F703BACF87EF92E00E9431
:102F9000300C0E949C0A0E94AC0A65E073E085E256
:102FA00095E00E94250D61E080E00E946D0A64E1D9
:102FB00073E085E295E00E94250D1092FA030E94CD
:102FC0001609809324051092FA030E941609809333
:102FD00024058A3219F40E94270D91CF823421F002
:102FE0008091FA03882379F31093F90388CF0E9424
:102FF0009C0A0E94AC0A6CE173E085E295E00E94B5
:10300000250D61E080E00E946D0A64E173E085E2D5
:1030100095E00E94250D0E941609809324050E94C8
:103020001609809324058A32B1F28334C1F71092D5
:10303000F80365CF0E949C0A0E94AC0A8091FB03B2
:103040009091FC038436910599F01093F603309229
:10305000FC032092FB036FE373E085E295E00E949E
:10306000250D61E080E00E946D0A0E94140E47CF9A
:103070001092F6031092FC031092FB0368E473E0D5
:10308000ECCF0E949C0A0E94AC0A8091FB039091B5
:10309000FC0344979093FC038093FB0318161906D6
:1030A0009CF41093F60366E573E085E295E00E94D8
:1030B000250D6091FB037091FC0385E295E00E9471
:1030C0002A0C62E573E0C9CF1092F6031092FC035C
:1030D0001092FB03E8CF0E949C0A0E94AC0A8091E8
:1030E000FB039091FC0344969093FC038093FB03B5
:1030F0001093F6038436910524F03092FC0320925D
:10310000FB0365E573E0D1CF10930001F8CE0E9478
:103110009C0A0E94AC0A61E673E085E295E00E9499
:10312000250D61E080E00E946D0A64E173E085E2B4
:1031300095E00E94250D1092FA030E9416098093D3
:1031400024051092FA030E941609809324058A32FE
:1031500009F441CF8332A9F70E949C0A0E94140E01
:103160000E94FD078091FB039091FC030E94DC0A02
:103170000E94FC0D2D9A8FE99FE00197F1F700C0A6
:1031800000000E94E4071093860468EE73E080E07C
:1031900090E00E9405010E94B708C090F203D09011
:1031A000F303E090F403F090F5039FEFC91AD90AF6
:1031B000E90AF90AC092F203D092F303E092F40311
:1031C000F092F5030E94E6078091F103811107C098
:1031D000A4EDCA16A0E3DA06E104F104A4F20E9409
:1031E000B7082D9860E081E00E946D0A6DE673E0FB
:1031F00085E295E00E94250D4091F2035091F30382
:103200006091F4037091F50385E295E00E94F80B5C
:10321000BAEA26EE36E941E0B15020403040404065
:10322000D9F7000004CF052E97FB1EF400940E94EE
:103230002A1957FD07D00E943D1907FC03D04EF410
:103240000C942A1950954095309521953F4F4F4F3A
:103250005F4F089590958095709561957F4F8F4F42
:103260009F4F08950E945F19A59F900DB49F900DE8
:10327000A49F800D911D11240895A1E21A2EAA1B6E
:10328000BB1BFD010DC0AA1FBB1FEE1FFF1FA21716
:10329000B307E407F50720F0A21BB30BE40BF50B13
:1032A000661F771F881F991F1A9469F7609570959C
:1032B000809590959B01AC01BD01CF010895A29F1F
:1032C000B001B39FC001A39F700D811D1124911DFA
:1032D000B29F700D811D1124911D08950E945F19E8
:1032E000B7FF0895821B930B0895EE0FFF1F059003
:1032F000F491E02D09945058BB27AA270E949319F6
:103300000C94631B0E94551B38F00E945C1B20F03C
:1033100039F49F3F19F426F40C942B1B0EF4E0951E
:10332000E7FB0C94251BE92F0E94741B58F3BA1776
:10333000620773078407950720F079F4A6F50C94CB
:10334000961B0EF4E0950B2EBA2FA02D0B01B901A0
:1033500090010C01CA01A0011124FF27591B99F00B
:10336000593F50F4503E68F11A16F040A22F232F17
:10337000342F4427585FF3CF469537952795A79567
:10338000F0405395C9F77EF41F16BA0B620B730B0E
:10339000840BBAF09150A1F0FF0FBB1F661F771F7F
:1033A000881FC2F70EC0BA0F621F731F841F48F434
:1033B000879577956795B795F7959E3F08F0B0CFBD
:1033C0009395880F08F09927EE0F979587950895A4
:1033D000DF93DD27B92FBF7740E85FE316161706A6
:1033E00048075B0718F4D92F0E94A21B9F938F9365
:1033F0007F936F930E94671CE8E6F0E00E942E1B0B
:103400000E94631B2F913F914F915F910E940D1C71
:10341000DD2351F09058A2EA2AED3FE049EC5FE34A
:10342000D0785D270E949319DF910C94631B0E9452
:10343000011B08F481E008950E94301A0C94631B6C
:103440000E945C1B58F00E94551B40F029F45F3F1E
:1034500029F00C94251B51110C94971B0C942B1BD9
:103460000E94741B68F39923B1F3552391F3951BC4
:10347000550BBB27AA2762177307840738F09F5F95
:103480005F4F220F331F441FAA1FA9F335D00E2E02
:103490003AF0E0E832D091505040E695001CCAF76F
:1034A0002BD0FE2F29D0660F771F881FBB1F261732
:1034B00037074807AB07B0E809F0BB0B802DBF0109
:1034C000FF2793585F4F3AF09E3F510578F00C94D8
:1034D000251B0C94971B5F3FE4F3983ED4F386952D
:1034E00077956795B795F7959F5FC9F7880F911DF9
:1034F0009695879597F90895E1E0660F771F881FE5
:10350000BB1F621773078407BA0720F0621B730B97
:10351000840BBA0BEE1F88F7E09508950E94951A68
:103520006894B1110C94971B08950E947C1B88F03D
:103530009F5798F0B92F9927B751B0F0E1F0660F77
:10354000771F881F991F1AF0BA95C9F714C0B130B8
:1035500091F00E94961BB1E008950C94961B672F82
:10356000782F8827B85F39F0B93FCCF386957795E7
:103570006795B395D9F73EF49095809570956195D0
:103580007F4F8F4F9F4F0895E89409C097FB3EF4FB
:1035900090958095709561957F4F8F4F9F4F9923A0
:1035A000A9F0F92F96E9BB279395F695879577951E
:1035B0006795B795F111F8CFFAF4BB0F11F460FFDE
:1035C0001BC06F5F7F4F8F4F9F4F16C0882311F036
:1035D00096E911C0772321F09EE8872F762F05C04A
:1035E000662371F096E8862F70E060E02AF09A95E5
:1035F000660F771F881FDAF7880F9695879597F9DA
:103600000895990F0008550FAA0BE0E8FEEF161673
:103610001706E807F907C0F012161306E407F507C6
:1036200098F0621B730B840B950B39F40A2661F03A
:10363000232B242B252B21F408950A2609F4A140DD
:10364000A6958FEF811D811D089597F99F6780E8EA
:1036500070E060E008959FEF80EC0895DF93CF93D2
:103660001F930F93FF92EF92DF927B018C0168947E
:1036700006C0DA2EEF010E940D1CFE01E894A59110
:103680002591359145915591A6F3EF010E9493192B
:10369000FE019701A801DA9469F7DF90EF90FF909F
:1036A0000F911F91CF91DF91089500240A9416166F
:1036B000170618060906089500240A941216130620
:1036C000140605060895092E0394000C11F48823AE
:1036D00052F0BB0F40F4BF2B11F460FF04C06F5FCA
:1036E0007F4F8F4F9F4F089557FD9058440F551FA0
:1036F00059F05F3F71F04795880F97FB991F61F074
:103700009F3F79F087950895121613061406551FEA
:10371000F2CF4695F1DF08C0161617061806991F56
:10372000F1CF86957105610508940895E894BB274B
:1037300066277727CB0197F908950E94011B08F4AB
:103740008FEF08959B01AC0160E070E080E89FE39B
:103750000C941C1A16F00C94951C0C942B1B68945A
:103760000C94251B0E947C1BA8F39923C1F3AEF394
:10377000DF93CF931F930F93FF92C92FDD278823E9
:103780002AF02197660F771F881FDAF720E030E0D4
:1037900040E85FEB9FE3883920F0803E38F02196C7
:1037A0008F770E947C19E5E9F0E004C00E947C1943
:1037B000E2ECF0E00E942E1B8B01BE01EC01FB2E1F
:1037C0006F5771097595771F880B990B0E94C61A60
:1037D00028E132E741E35FE30E940D1CAF2D980121
:1037E000AE01FF900F911F91CF91DF910E9493192D
:1037F0000C94631B0E940D1C0C94631B0E94551BB0
:1038000038F00E945C1B20F0952311F00C94251BCE
:103810000C942B1B11240C94971B0E94741B70F3A7
:10382000959FC1F3950F50E0551F629FF001729F65
:10383000BB27F00DB11D639FAA27F00DB11DAA1F74
:10384000649F6627B00DA11D661F829F2227B00DC1
:10385000A11D621F739FB00DA11D621F839FA00D4C
:10386000611D221F749F3327A00D611D231F849F9C
:10387000600D211D822F762F6A2F11249F575040F3
:103880009AF0F1F088234AF0EE0FFF1FBB1F661F6E
:10389000771F881F91505040A9F79E3F510580F037
:1038A0000C94251B0C94971B5F3FE4F3983ED4F3D4
:1038B000869577956795B795F795E7959F5FC1F7DB
:1038C000FE2B880F911D9695879597F908959B017A
:1038D000AC010C94FA1BDF93D92F0E94B91CE6951A
:1038E000D7952AED3FE049E45FE3B33A62077307F7
:1038F00084079507D7953AF0A2EA49EC90680E94B0
:1039000093190E94631BEFEEF0E00E94A31CDD0FF1
:1039100013F00E94A21BDD0F0BF49058DF91089565
:103920000E94011B880B990B08959F3F31F0915025
:1039300020F4879577956795B795880F911D969593
:10394000879597F908959F938F937F936F93FF9334
:10395000EF939B01AC010E94FA1BEF91FF910E9433
:103960002E1B2F913F914F915F910C94FA1B0C9459
:103970002B1B0E947C1BD8F3E894E0E0BB279F57E9
:10398000F0F02AED3FE049EC06C0EE0FBB0F661FDA
:10399000771F881F28F0B23A62077307840728F060
:1039A000B25A620B730B840BE3959A9572F78038C9
:1039B00030F49A95BB0F661F771F881FD2F7904887
:0839C0000C94971CF894FFCF52
:1039C8000101010302010004050607302A373434D7
:1039D800303835362339364344434200004000141A
:1039E800005400000000004C04AC03D90399040AF9
:1039F80004E803FC03000000009E077107E1074785
:103A0800076A075707480700000000C50AAC03E12A
:103A180007C4040000000004015D06C4080D0A0084
:103A28006E616E00696E66006F76660052454144AD
:103A3800592100204B4137383035202D20004300D4
:103A480020204134393838202D2000432000537479
:103A5800617220547261636B657200414456414E35
:103A680043454400696E73696465206C6F6F70002C
:103A780043616C6962726174696E672E2E2E005400
:103A88007261636B696E6720496E69740074726154
:103A9800636B20747269676765726564005472614C
:103AA800636B696E672000547261636B696E67208F
:103AB80050617573656400232E205265736D002074
:103AC8002A2E2043616E636C0053696465726961D4
:103AD8006C2052554E54494D453A20002054686593
:103AE80074613A2000205053493A200020436F72F5
:103AF80072656374696F6E3A200020436F72726555
:103B08006374656420523A20002052504D203A20B8
:103B1800002044454C4159204245545745454E20C4
:103B280053746570733A20005570706572204C6943
:103B38006D697400432E20526577696E64202620D3
:103B480043616C69627261746500696E736964656A
:103B58002063616C69627261746520696E697400C2
:103B6800372E204F70656E20706C616E6B00392E99
:103B780020436C6F736520506C616E6B2020202091
:103B8800004D616E75616C204D20506175736564E0
:103B9800005570706572204C696D69742020202072
:103BA800202020004C6F776572204C696D69742065
:103BB80020202020202000696E73696465206361DD
:103BC8007365204200422E2053746172742054722F
:103BD80061636B002A2E204261636B00432E2052E2
:103BE8006577696E6420262043616C696200442E03
:103BF800204D616E75616C20436F6E726F6C00466C
:103C0800616E3A204D616E0046616E3A20417574CE
:103C18006F002529002046616E3A204D616E2028EC
:103C280000232E20436F6E74696E756500546F749F
:063C3800616C3A2000005F
:00000001FF
